:020000040800F2
:1000000040080020252000086D0E00086F0E000833
:10001000730E0008770E00087B0E00080000000039
:100020000000000000000000000000007F0E00083B
:10003000810E000800000000830E0008850E0008F5
:100040003F2000083F2000083F2000083F20000814
:100050003F2000083F2000083F2000083F20000804
:100060003F2000083F2000083F2000083F200008F4
:100070003F2000083F2000083F2000083F200008E4
:100080003F2000083F2000083F2000083F200008D4
:100090003F2000083F2000083F2000083F200008C4
:1000A0003F2000083F2000083F2000083F200008B4
:1000B0003F2000083F2000083F2000083F200008A4
:1000C0003F2000083F2000083F2000083F20000894
:1000D0003F200008991F00083F2000083F2000082B
:1000E0003F2000083F2000083F2000083F20000874
:1000F0003F2000083F2000083F2000083F20000864
:100100003F2000083F2000083F2000083F20000853
:100110003F2000083F2000083F200008A51D0008E0
:100120003F2000083F2000083F2000083F20000833
:100130003F2000083F2000083F2000083F20000823
:100140003F2000083F2000083F2000083F20000813
:100150003F2000083F2000083F2000083F20000803
:100160003F2000083F2000083F2000083F200008F3
:100170003F2000083F2000083F2000083F200008E3
:100180003F2000083F20000800F002F800F03CF893
:100190000AA090E8000C82448344AAF10107DA45E2
:1001A00001D100F031F8AFF2090EBAE80F0013F0F8
:1001B000010F18BFFB1A43F001031847D452000087
:1001C000F4520000103A24BF78C878C1FAD8520718
:1001D00024BF30C830C144BF04680C6070470000C1
:1001E0000023002400250026103A28BF78C1FBD840
:1001F000520728BF30C148BF0B6070471FB505F0DC
:100200001CF91FBD10B510BD03F0E2FF1146FFF74A
:10021000F5FF00F0A1FD04F000F803B4FFF7F2FFD2
:1002200003BC01F055FE0000F0EE400AF5EEC00AF6
:10023000F1EE10FA02D29FEDFE0A7047B7EE000A07
:10024000F4EEC00AF1EE10FA02DDB7EE000AF4E7B0
:10025000B0EE600AF1E72DE9F04104460E4615467E
:10026000002700BF2DE02878012804D14FF4FA615F
:10027000F04802F076FD6878012804D14FF4FA6165
:10028000ED4802F06EFDA04604EBD871C1F34F00BB
:1002900001F0FEFD2878012803D10021E54802F095
:1002A00060FD6878012803D10021E34802F059FD80
:1002B000A04604EBD871C1F34F0001F0E9FD781CB2
:1002C00007B2B742CFDBBDE8F0812DE9F04104462B
:1002D0000D46002600BF20E04FF4FA61D54802F039
:1002E00040FD0021D44802F03CFD274604EBD771C5
:1002F000C1F34F0001F0CCFD0021CE4802F031FDEA
:100300004FF4FA61CC4802F02CFD04EBD771C1F335
:100310004F0001F0BDFD701C06B2AE42DCDB0021D7
:10032000C54802F01EFD274604EBD771C1F34F000C
:1003300001F0AEFDBDE8F08110B50446C4F5FA61E8
:100340004FF0804002F00DFDC4F5FA61BB4802F0A9
:100350000CFDC4F5FA61B94802F009FDC4F5FA6173
:10036000B74802F0FEFCC4F5FA61B54802F0FBFCA8
:10037000C4F5FA61B24802F0FAFCC4F5FA61B0487B
:1003800002F0F3FCC4F5FA614FF0804002F0EDFC9E
:10039000C4F5FA614FF0804002F0E9FCC4F5FA615F
:1003A000A84802F0DEFCC4F5FA61A64802F0DBFCC6
:1003B000C4F5FA61A34802F0D8FCC4F5FA61A1487B
:1003C00002F0D5FCC4F5FA619F4802F0CAFCC4F5FE
:1003D000FA619D4802F0C7FCC4F5FA619A4802F040
:1003E000C4FCC4F5FA61984802F0C1FCC4F5FA6196
:1003F0004FF0804002F0B7FCC4F5FA618F4802F07C
:10040000B0FCC4F5FA61914802F0ABFCC4F5FA61A6
:100410008F4802F0A6FCC4F5FA618D4802F0A3FCF7
:10042000C4F5FA618A4802F0A0FCC4F5FA61884874
:1004300002F09DFC10BDF0B52DED0C8B8DB0064685
:10044000F0EE408AB0EE609A0D4619EE100A04F004
:1004500083FF41EC1D0B9FED7F0B53EC102B04F041
:10046000F9FA41EC1C0B9FED7D0B53EC102B04F0C3
:1004700049FD41EC1B0B04F007FA08EE100A18EED8
:10048000100A04F069FF41EC1C0BB0EE4C0AF0EED0
:100490006C0A03F0CDFEB0EE40BAF0EE60BA51EC5B
:1004A0001B0B04F06BFC00B200EE100AB8EEC00AA1
:1004B000F0EE409AF7EE000A30EE200AB0EE40AAC5
:1004C000002431E0BDEEE90A10EE100A00B2201A55
:1004D0006030182190FBF1F201FB120006EB800066
:1004E00090ED000A7AEE480A20EE200AFDEECA0AD4
:1004F00010EE900A00B2201A603090FBF1F201FB7E
:10050000120006EB8000D0ED000A38EE691A00EE0A
:10051000810A20EE280ABCEEC00A10EE100A01A9DA
:1005200021F81400601C84B2182CCBDBBDF8040049
:10053000C0F5FA614FF0804002F013FCBDF80600F0
:10054000C0F5FA613D4802F010FCBDF80800C0F5A6
:10055000FA613A4802F00BFCBDF80A00C0F5FA61F6
:10056000374802F0FEFBBDF80C00C0F5FA613448D4
:1005700002F0F9FBBDF80E00C0F5FA61304802F058
:10058000F6FBBDF81000C0F5FA612D4802F0EDFB56
:10059000BDF81200C0F5FA614FF0804002F0E5FBB3
:1005A000BDF81400C0F5FA614FF0804002F0DFFBA7
:1005B000BDF81600C0F5FA61224802F0D2FBBDF882
:1005C0001800C0F5FA611F4802F0CDFBBDF81A0013
:1005D000C0F5FA611B4802F0C8FBBDF81C00C0F56D
:1005E000FA61184802F0C3FBBDF81E00C0F5FA61BD
:1005F000154802F0B6FBBDF82000C0F5FA611248BC
:1006000002F0B1FBBDF82200C0F5FA610E4802F01D
:10061000ACFBBDF82400C0F5FA610B4802F0A7FB63
:10062000BDF82600C0F5FA614FF080401AE00000E6
:100630000000000000440140004801400004004068
:10064000000001400008004000040140004001405B
:10065000000C004044174154FB21094000000000F9
:100660000000284002F07FFBBDF82800C0F5FA61C9
:10067000F74802F076FBBDF82A00C0F5FA61F548AC
:1006800002F06FFBBDF82C00C0F5FA61F24802F0F1
:1006900068FBBDF82E00C0F5FA61EF4802F063FB7D
:1006A000BDF83000C0F5FA61EB4802F05EFBBDF822
:1006B0003200C0F5FA61E84802F059FB2F4605EB1D
:1006C000D771C1F34F0001F0E3FB4FF47A710A20B8
:1006D00001F0ECF8044605EBD771C1F34F0001F0CF
:1006E000D7FB0020FFF728FE20460DB0BDEC0C8B99
:1006F000F0BD10B52DED0A8BB0EE408AD74890EDD5
:10070000000AD0ED010A80EE201A11EE104A2046B0
:1007100004F022FE41EC1C0BB0EE4C0AF0EE6C0A29
:1007200003F012FEB0EE40AAF0EE60AA18EE100A36
:1007300004F012FE41EC1B0B53EC1A2B04F0E2FB0D
:1007400041EC190B04F0A0F800EE100ABDEC0A8B86
:1007500010BD2DE9F04104460D460020FFF7ECFDE9
:10076000204601F095FB00264FF47A710A2001F033
:100770009DF8284487B204EB8401480042F2D0017E
:1007800001F0E4FA0120B649087004E064210A206F
:1007900001F08CF80646BE4203DAB1480078002822
:1007A000F4D14FF47A70FFF7C7FD322C03DA322010
:1007B00001F06EFB02E0204601F06AFB0020FFF72B
:1007C000BBFDBDE8F0812DE9F0470746884691461C
:1007D0001D4625B14FF47A71A24802F0C2FA0024F6
:1007E000002614E01021A04801F094FD20B9601CFF
:1007F00084B2BC4208DB0BE034B1701C86B24645C3
:1008000002DD002006460446484601F0F9FAE9E711
:1008100000BF25B1954A01216420FFF71CFDBDE80A
:10082000F08710B5044654B140F6FF71002003F084
:1008300025FC4FF47A718B4802F093FA07E000210F
:10084000084603F01BFC0021864802F08AFA10BD1E
:1008500070B505460C4600260DE00120FFF7E1FFCC
:10086000204601F0CDFA0020FFF7DBFF204601F023
:10087000C7FA701C86B2A81C8642EEDB600001F04D
:10088000BFFA70BD2DE9F0412DED0C8BF0EE408AE2
:1008900004460D464FF47A71754802F062FA012061
:1008A000FFF7BFFF204601F0ABFA0020FFF7B9FFCA
:1008B00004EB440001F0A4FAB0EE688AB5EEC08AF9
:1008C000F1EE10FA08D221460020FFF7C1FFB1EE89
:1008D000480AB0EE408A03E021460120FFF7B8FF46
:1008E000002642E018EE100A04F036FD41EC1A0B27
:1008F000B0EE4A0AF0EE6A0A03F09AFCB0EE409AB3
:10090000F0EE609A51EC190B04F038FA87B22146E8
:100910003846FFF79DFF18EE100A04F01DFD41EC6C
:100920001D0BB0EE4D0AF0EE6D0A03F081FCB0EE47
:1009300040BAF0EE60BA18EE100A04F00DFD41EC7A
:100940001C0B53EC1B2B04F01DFC41EC1A0B9FED10
:10095000490B53EC102B04F0D5FA41EC190B03F0C2
:1009600093FF08EE100A701C86B2AE42BADB01207B
:10097000FFF757FF204601F043FA0020FFF751FF31
:1009800004EB440001F03CFA0021394802F0E9F997
:10099000BDEC0C8BBDE8F0812DE9F04F2DED108BF7
:1009A00085B005460F4690461E46B0EE408A4FF091
:1009B0000009CA46CB460024002004900290039010
:1009C0001FEDE50AB0EE40FA00BFD0E041465FED12
:1009D000E80A1FEDE90A3846FFF72DFD814600249D
:1009E0002EE0264800EB840090ED000A10EE101A6D
:1009F000084604F0B1FC41EC1A0B1FEDEA0B53EC76
:100A0000102B03F073FF41EC190B03F03DFF08EED0
:100A1000900A4146F0EE680AB7EE000A3846FFF742
:100A20000AFDA0EB090080B204A921F8140002A974
:100A300051F82410084402A941F82400601C84B233
:100A4000022CCEDB4FF0000B89E0002481E0000097
:100A50000004004000400140000C0040C0000020A5
:100A6000F40000200048014000080240D8000020A7
:100A7000004401400000000000002440C8000020A5
:100A8000EC4800EB840090ED001AF0EE410A05EB13
:100A9000840090ED001AB0EE410A41463846FFF757
:100AA000CAFCA0EB090000EE100AB8EEC00A20EE66
:100AB000080A8DED010A019804F04EFC41EC1C0B74
:100AC0009FEDDD0B53EC102B03F0C4FF41EC1A0B30
:100AD00004A830F8140000EE100AB8EE400A20EE28
:100AE000080A10EE101A084604F036FC41EC1E0B02
:100AF0009FEDD10B53EC102B03F0ACFF41EC1D0B21
:100B00009FEDCF0B53EC102B04F030FB41EC1C0B92
:100B100003F0BAFE08EE900AB0EE680AFFF784FB15
:100B200005EB8400D0ED000A20EE200A8DED010ACD
:100B3000019804F011FC41EC1B0B53EC1A2B03F051
:100B4000D5FE41EC190B03F09FFE45F82400601C14
:100B500084B2022C94DB0BF101001FFA80FB1E987B
:100B60008345FFF672AF0AF101001FFA80FAB24521
:100B7000FFF62CAF002409E002A850F82400B0FBD7
:100B8000F6F002A941F82400601C84B2022CF3DBC9
:100B900005B0BDEC108BBDE8F08F2DE9F04F2DEDC9
:100BA0000E8B83B006460F469046B0EE408A00207A
:100BB000019002908146002482460025009000BFEB
:100BC0000BE0A14800EB840090ED000A01A800EBC7
:100BD000840080ED000A601C84B2022CF1DB00244A
:100BE0009BE00123C82202210A20FFF7ECFD3146D9
:100BF000DFED960A9FED950A9548FFF71CFC8146AC
:100C000000250EE03146DFED910AB7EE000A90486C
:100C1000FFF711FCA0EB090080B22DF81500681C4D
:100C200085B2022DEEDB4FF0000A72E000256AE08B
:100C3000804800EB850090ED001AF0EE410A01A813
:100C400000EB850090ED001AB0EE410A3146804875
:100C5000FFF7F1FBA0EB090000EE100AB8EEC00AA6
:100C600020EE080A10EE10BA584604F075FB41EC6D
:100C70001C0B9FED710B53EC102B03F0EBFE41ECC2
:100C80001A0B3DF8150000EE100AB8EE400A20EEEF
:100C9000080A10EE101A084604F05EFB41EC1E0B29
:100CA0009FED650B53EC102B03F0D4FE41EC1D0BB4
:100CB0009FED630B53EC102B04F058FA41EC1C0B26
:100CC00003F0E2FD08EE900AB0EE680AFFF7ACFA16
:100CD00001A800EB8500D0ED000A20EE200A10EEFE
:100CE00010BA584604F038FB41EC1B0B53EC1A2B9E
:100CF00003F0FCFD41EC190B03F0C6FD01A941F81E
:100D00002500681C85B2022D92DB0AF101001FFA52
:100D100080FAC2458ADB601C84B2BC42FFF661AF38
:100D2000002412E0484800EB840090ED000A01A87E
:100D300000EB8400D0ED000A80EE201A424800EB60
:100D4000840080ED001A601C84B2022CEADB03B040
:100D5000BDEC0E8BBDE8F08F30B52DED028B81B070
:100D60004FF4A06001F07EF9A82001F02FF84FF4B5
:100D7000E13001F0BBF8002500F044FD00F0B2FDC9
:100D800000F0BEFE00F05DFE00F086F9022140F2A8
:100D9000CF7000F0B5F90020FFF7CEFA4FF4FA70EB
:100DA00001F076F82B4A03214FF4FA70FFF753FA5B
:100DB000012429E00123C82202210A20FFF703FDB4
:100DC0001420B4FBF0F100FB114038B99FED220A6A
:100DD000282214210A20FFF7E0FE09E005209FEDFC
:100DE0001F0A02230A221A4900901748FFF7D4FD70
:100DF000B7EE000AFFF77DFCB0EE408A062141F213
:100E00008830FFF73FFD641C15488442D2D900208A
:100E1000FFF792FA134A14214FF4FA70FFF71BFA06
:100E20004FF4C871104801F09CFF002001B0BDECE8
:100E3000028B30BDC80000200000000000005940B7
:100E4000000000000000F03FC00000200000000093
:100E500060000020D8000020CDCC4C3D0AD7A33C38
:100E6000A0860100DA00002000440140704700BF66
:100E7000FEE700BFFEE700BFFEE700BFFEE77047EA
:100E800070477047704700000CB50020019000903B
:100E90007648006840F480307449086000BF7348A9
:100EA000006800F4003000900198401C0190009808
:100EB00018B90198B0F5A04FF1D16C48006800F462
:100EC000003010B10120009001E000200090009857
:100ED000012846D165484030006840F080506349A1
:100EE000403108606248006840F440406049086052
:100EF0005E48083000685D490831086008460068AF
:100F000040F4004008600846006840F4A0500860C3
:100F10005848091F0860081F006840F08070091FCA
:100F2000086000BF5148006800F000700028F9D048
:100F300040F20570504908604C480830006820F0C5
:100F400003004A49083108600846006840F0020082
:100F5000086000BF45480830006800F00C00082811
:100F6000F8D10CBD10B54548006840F47000434905
:100F700008603E48006840F001003C4908600020DD
:100F80003A4908310860394800683D490840374906
:100F900008603C48091D0860081F006820F4802094
:100FA000091F0860002031490C310860FFF76CFF11
:100FB0004FF0006031498039086010BD70B50020E5
:100FC0000022022300240221284D08352D6805F057
:100FD0000C0020B1042806D0082834D107E02A4D9F
:100FE0002A4E356033E02A4D284E35602FE01F4DE4
:100FF0002D1D2D68C5F380541C4D2D1D2D6805F049
:101000003F0154B1224DB5FBF1F5184E361D36683F
:10101000C6F3881605FB06F209E01B4DB5FBF1F59A
:10102000124E361D3668C6F3881605FB06F20F4DC4
:101030002D1D2D68C5F301456D1C6B00B2FBF3F54A
:10104000124E356003E0104D104E356000BF00BFFA
:10105000064D08352D68C5F303150E4E705D0B4D1A
:101060002D68C540094E356070BD00000038024053
:101070000070004008544007003C024088ED00E04A
:10108000FFFFF6FE103000240024F400E0000020F2
:1010900000127A00E40000201CB50121042002F0B7
:1010A000F1FB1020009000208DF8040003208DF843
:1010B000050001208DF8070069460F4801F0C8F8C7
:1010C0000121082002F0DEFB1E20009001208DF897
:1010D000040000208DF8060003208DF80500012093
:1010E0008DF807006946054801F0B2F81E21034853
:1010F00001F02CF91CBD000000080240000C024069
:1011000030B58BB004460D460121084602F0BAFB0B
:101110000121022002F0B6FB0121042002F0B2FB03
:101120000121082002F0AEFB0121102002F0AAFBF1
:1011300002208DF8280003208DF8290000208DF86A
:101140002A0001208DF82B00EF20099009A9FE4804
:1011500001F07EF84CF61B70099009A9FB4801F0DC
:1011600077F84FF47070099009A9F94801F070F808
:101170004FF47040099009A9F64801F069F846F665
:101180006020099009A9F44801F062F801210802E1
:1011900002F0C1FB09220721EB4801F0E4F801212C
:1011A000802002F0B8FB09220621E74801F0DBF8B5
:1011B0000121402002F0AFFB09220E21E34801F09B
:1011C000D2F809220F21E14801F0CDF8012188046D
:1011D00002F0B2FB03220921DC4801F0C4F801212E
:1011E000480402F0A9FB03220821D84801F0BBF80B
:1011F0000121080402F0A0FB03220521D64801F0DA
:10120000B2F803220621D44801F0ADF801210220F2
:1012100002F092FB03220621CD4801F0A4F803223C
:101220000721CB4801F09FF803220821C84801F0AC
:101230009AF803220921C64801F095F801210820F7
:1012400002F069FB02220021BF4801F08CF8022263
:101250000121BD4801F087F802221146BA4801F089
:1012600082F802220321B84801F07DF8012108200C
:1012700002F051FB02220021B34801F074F802226F
:101280000121B14801F06FF802221146AE4801F089
:101290006AF802220321AC4801F065F8012104201C
:1012A00002F039FB02220C21AA4801F05CF802226C
:1012B0000D21A84801F057F802220E21A54801F09F
:1012C00052F802220F21A34801F04DF8012102201B
:1012D00002F021FB022200219C4801F044F8022286
:1012E00001219A4801F03FF802220421974801F0B9
:1012F0003AF80121084602F00EFB0122052192482E
:1013000001F031F801220321904801F02CF801226C
:101310000A218E4801F027F801220B218B4801F0A9
:1013200022F80121084602F007FB012209218A4820
:1013300001F019F801220B21874801F014F801226D
:101340000D21854801F00FF801220E21824801F09D
:101350000AF8A8B2ADF818000020ADF81A000794FA
:10136000ADF8200006A97D4801F00DFB06A97C48D8
:1013700001F009FB06A97B4801F005FB06A97A48A4
:1013800001F001FB06A9794801F0FDFA06A97848A9
:1013900001F0F9FA06A9774801F0F5FA06A97648AE
:1013A00001F0F1FA06A9754801F0EDFA06A97448B2
:1013B00001F0E9FA06A94FF0804001F0E4FA06A92D
:1013C000704801F0E0FA6020ADF804000120ADF8AB
:1013D00006000220ADF8100001A9604801F068FB8A
:1013E00008215E4801F0F1FC01A95D4801F060FBB5
:1013F00008215B4801F0E9FC01A95A4801F058FBBB
:101400000821584801F0E1FC01A9564801F089FB88
:101410000821544801F0E2FC01A9534801F048FBBF
:101420000821514801F0D1FC01A9504801F040FBCE
:1014300008214E4801F0C9FC01A94D4801F038FBD4
:1014400008214B4801F0C1FC01A9494801F069FBA2
:101450000821474801F0C2FC01A9464801F028FBD9
:101460000821444801F0B1FC01A9424801F059FBB0
:101470000821404801F0B2FC01A93E4801F09EFB62
:1014800008213C4801F0B7FC01A93A4801F0FCFBF7
:101490000821384801F0B8FC01A9374801F008FBE1
:1014A0000821354801F091FC01A9334801F039FBCE
:1014B0000821314801F092FC01A92F4801F07EFB80
:1014C00008212D4801F097FC01A92B4801F0DCFB15
:1014D0000821294801F098FC01A9284801F0E8FA00
:1014E0000821264801F071FC01A9244801F019FBEC
:1014F0000821224801F072FC01A9204801F05EFB9E
:1015000008211E4801F077FC01A91C4801F0BCFB32
:1015100008211A4801F078FC01A9194801F0C8FA1D
:101520000821174801F051FC01A9154801F046FBBC
:101530000821134801F05FFC01A9114801F0A4FB48
:1015400008210F4820E00000000002400004024093
:1015500000080240000C0240001002400020004041
:10156000001C0040001800400048014000440140B9
:101570000040014000040140000C00400008004011
:10158000000400400000014001F03EFC01A94FF0C2
:10159000804001F08DFA0821C80601F016FC01A96F
:1015A0004FF0804001F0BDFA0821C80601F016FC9A
:1015B00001A94FF0804001F001FB0821C80601F0AD
:1015C0001AFC01A94FF0804001F05EFB0821C8061B
:1015D00001F01AFC01A9804801F06AFA08217E484E
:1015E00001F0F3FB01A97C4801F09BFA08217A483D
:1015F00001F0F4FB01A9784801F0E0FA08217648EF
:1016000001F0F9FB01A9744801F03EFB0821724882
:1016100001F0FAFB0121714801F020FA01216F4825
:1016200001F03AFA01216E4801F018FA01216C48E4
:1016300001F032FA01216B4801F010FA01216948EA
:1016400001F02AFA0121684801F008FA01216648F0
:1016500001F022FA0121654801F000FA01216348F6
:1016600001F01AFA0121624801F0F8F901216048FD
:1016700001F012FA01215F4801F0F0F901215D4803
:1016800001F00AFA01215B4801F0F7FD01215A48F7
:1016900001F0E4F90121584801F0FEF90121574811
:1016A00001F0DCF90121554801F0F6F90121544817
:1016B00001F0D4F90121524801F0EEF90121880727
:1016C00001F0CCF90121880701F0E6F90121424837
:1016D00001F0C4F90121404801F0DEF901213E4842
:1016E00001F0CBFD4FF4FA61880601F03AFB4FF4AC
:1016F000FA61434801F039FB4FF4FA61404801F0C8
:1017000036FB4FF4FA61344801F02BFB4FF4FA61D9
:10171000314801F028FB4FF4FA612F4801F027FB14
:101720004FF4FA612C4801F020FB4FF4FA6188066F
:1017300001F01BFB4FF4FA61880601F018FB4FF42F
:10174000FA612E4801F00DFB4FF4FA612B4801F0CD
:101750000AFB4FF4FA61294801F007FB4FF4FA61E4
:10176000264801F004FB4FF4FA61224801F0F9FA2F
:101770004FF4FA611F4801F0F6FA4FF4FA611D4880
:1017800001F0F3FA4FF4FA611A4801F0F0FA4FF45D
:10179000FA61880601F0E7FA4FF4FA61184801F09F
:1017A000E0FA4FF4FA61124801F0DBFA4FF4FA6103
:1017B000114801F0D6FA4FF4FA610F4801F0D3FA5C
:1017C0004FF4FA610C4801F0D0FA4FF4FA610A487C
:1017D00001F0CDFA0BB030BD000001400020004008
:1017E000001C004000180040004801400044014037
:1017F0000040014000040140000C0040000800408F
:101800000004004000B58DB00121042002F03AF838
:101810000121080202F090F801200B9003208DF8BE
:10182000300000208DF833000BA92C4800F010FD8B
:101830000121080202F0D5F800214FF4807002F077
:10184000D0F8002007900A9009904FF4803008905B
:1018500007A802F0A5F9002001908DF808008DF886
:1018600009000390059001208DF8180001A91C487B
:1018700002F067F901211A4802F0A9F90DB000BD84
:1018800010B50446072301222146154802F0DFF96E
:10189000134802F038FA00BF0221114802F054FB4D
:1018A0000028F9D00E4802F06AFA10BD2DE9F04187
:1018B00007460C460025002608E03846FFF7E0FF03
:1018C0000544012000F09CFA701C86B2A642F4DBAD
:1018D000B5FBF4F080B2BDE8F081000000080240E2
:1018E0000020014000B587B00121084601F0CAFF81
:1018F0000121480702F00FF81020059003208DF811
:10190000180002208DF81B0005A9244800F0A0FC57
:1019100000200190029003900220049001A9002071
:1019200002F041FB0121002002F05AFB4FF47A71D2
:10193000002002F0A3FB07B000BD70B52DED048BB5
:101940000446204603F08EFA41EC180B9FED140B71
:1019500053EC102B51EC180B03F07CF841EC180BF6
:101960009FED110B53EC102B51EC180B03F0CAFA3E
:1019700041EC190B9FED0E0B53EC102B03F06AF8A2
:1019800041EC180B51EC180B03F028FA85B22946EC
:10199000002002F073FBBDEC048B70BD0000024020
:1019A0000000000000408F40000000000000B04038
:1019B0006666666666660A4070B5044600F0BEF864
:1019C0001A2000F067F900F0FAF8204600F062F9FA
:1019D00000F0F5F800F0B2F81B2000F05BF900F021
:1019E000EEF800F084F9054600F033F900F0C8F88D
:1019F000284670BD70B504460120FFF7DDFF05469F
:101A00000020FFF7D9FF00EB052000B224F8020BFD
:101A10000320FFF7D1FF05460220FFF7CDFF00EBC3
:101A2000052000B224F8020B0520FFF7C5FF05468C
:101A30000420FFF7C1FF00EB052000B224F8020BE1
:101A400070BD10B500F07AF81A2000F023F900F00C
:101A5000B6F80B2000F01EF900F0B1F8012000F0FC
:101A600019F900F0ACF800F08BF800F067F81A20D4
:101A700000F010F900F0A3F8092000F00BF900F0D5
:101A80009EF81D2000F006F900F099F800F078F8B3
:101A90000A2000F0FDF910BD70B5044600F04EF8C4
:101AA0001A2000F0F7F800F08AF8002000F0F2F8B1
:101AB00000F085F800F042F81B2000F0EBF800F091
:101AC0007EF800250FE000F012F9064600F0A0F8BD
:101AD00000F00DF906EB002000B224F8020B00F034
:101AE00097F8681CC5B2032DEDDB00F000F900F09B
:101AF0008FF800F0FCF800F0ACF800F041F870BD91
:101B00001CB50121022001F0BDFEC0200090012083
:101B10008DF8040000208DF8060003208DF80500E4
:101B200001208DF807006946854800F091FB0120EF
:101B3000844908608449C1F89C021CBD10B58048E6
:101B4000006820F440407E4908600846006840F480
:101B50008040086001207B49091D08607A49C1F86E
:101B60009802042000F04CF900207649091D086015
:101B7000042000F045F900207349C1F8980210BD17
:101B800010B56F48006820F440406D490860084671
:101B9000006840F48040086000206A4908606A4993
:101BA000C1F89C02042000F02BF90120654908606F
:101BB0006549C1F89C02042000F022F910BD10B55F
:101BC00000245F48006820F440405D4908600846F2
:101BD0000068086001205B49091D086000F010F9E9
:101BE00001205949C1F8980200F00AF907E0601C89
:101BF000C4B2FA2C03DDFFF7C3FF012010BD51482A
:101C00007C3800680028F2D14E49086000BFF5E733
:101C100010B500204B4908604948006820F4404056
:101C2000474908600846006840F48040086000208A
:101C30004549C1F89C02022000F0E2F80120414928
:101C40000860022000F0DCF800203F49C1F898024B
:101C500010BD10B500203B4908603948006820F4E9
:101C60004040374908600846006840F480400860FA
:101C700001203549C1F89C02022000F0C1F8012082
:101C800030490860022000F0BBF800202E49C1F85E
:101C9000980210BD70B504462948006820F4404001
:101CA000274908600846006840F48040086000202A
:101CB00024490860002517E0E0092249091D086051
:101CC0006006040E022000F09BF801201E49C1F8B6
:101CD0009802022000F094F800201A4908600220BF
:101CE00000F08EF8681CC5B2082DE5DB70BD70B53C
:101CF00000241348006820F4404011490860084659
:101D000000680860002516E000200E4908600220E7
:101D100000F076F801200C49C1F898026006040E24
:101D200008487C38006808B1601CC4B2052000F087
:101D300067F8681CC5B2082DE6DB204670BD0000C0
:101D40000004024098824042008040427FB5054630
:101D50000C460121202001F0DEFD0295ADF8044083
:101D60000020ADF80600ADF80C0001A9154800F000
:101D70000AFE01221146134801F0A6FA012111487A
:101D800000F08AFE37208DF8000001208DF8010058
:101D900003208DF8020001208DF80300684600F052
:101DA00066F97FBD10B50121064801F0A4FA0128AB
:101DB00002D10020044908700121024801F0ACFA68
:101DC00010BD000000140040F400002010B50446CF
:101DD0006FF0040000F098F9E11704EB5171C1F3C2
:101DE000C701394A11701046007800EB4001C1EB81
:101DF000C0104FF6FF7101EAC0003449088010BDE1
:101E00000146314A12784A434FF0E0235A610022DA
:101E10009A611A46126942F001021A6100BF4FF03E
:101E2000E022106900F001021AB100F48032002AA9
:101E3000F5D04FF0E022126922F001024FF0E023CA
:101E40001A6100229A6170470146204A12884A436B
:101E50004FF0E0235A6100229A611A46126942F05B
:101E600001021A6100BF4FF0E022106900F0010288
:101E70001AB100F48032002AF5D04FF0E022126946
:101E800022F001024FF0E0231A6100229A617047AC
:101E900070B504464FF4077094FBF0F0C6B24FF4EF
:101EA000077094FBF0F100FB114085B205E04FF4A0
:101EB0000770FFF7C9FF701EC6B2002EF7D115B12B
:101EC0002846FFF7C1FF70BDF6000020F800002093
:101ED000014600BF704700BF4E4A128802F0400220
:101EE000002AF9D0C2B24B4B9A80704710B588B027
:101EF00004460121084601F0C5FC0121102001F033
:101F00001BFD07220921444800F02DFA07220A216F
:101F1000414800F028FA4FF4C060069002208DF886
:101F20001C008DF81D0000208DF81E0001208DF88A
:101F30001F0006A9384800F08BF902940020ADF884
:101F40000C00ADF80E00ADF81000ADF814000C2038
:101F5000ADF8120002A92F4800F0A5FA01212D4882
:101F600000F029FB40212B4800F00DFC012240F23B
:101F70002551284800F0D5FB25208DF804000320CA
:101F80008DF805008DF8060001208DF8070001A8E6
:101F900000F06DF808B010BD10B540F225511D4895
:101FA00000F0FAFB10B31B4800F034FBC4B21B482E
:101FB000008800F40040C8B91848008800F4804048
:101FC00060B10A2C03D000201449088020E0134897
:101FD000008840F400401149088019E00D2C06D11A
:101FE0000E48008840F480400C49088010E00B48FF
:101FF0000088C0F30D000A490C5408480088401CB2
:102000000649088008460088C72801DD00200880AE
:1020100010BD00000010014000000240000100203F
:10202000140100200948804709480047FEE7FEE701
:10203000FEE7FEE7FEE7FEE7FEE7FEE7FEE7FEE778
:1020400004480549054A064B70470000650F000823
:1020500089010008400200204008002040040020C0
:102060004004002032490143324A1160704770B584
:10207000002100230F22C4781CB32E4C246804F4E2
:10208000E064C4F5E064C4F30721C1F10404E3B2E1
:102090000A4144789C40E1B28478144021430C0703
:1020A000210E254C05786155047804F01F050124A4
:1020B000AC4005786D11AD0005F1E025C5F8004193
:1020C00009E0047804F01F050124AC401B4D06789C
:1020D000761145F8264070BD194A0A400243154B57
:1020E0001B1F1A60704739B1124A121D1268024351
:1020F000104B1B1D1A6006E00E4A121D1268824327
:102100000C4B1B1D1A607047042808D14FF0E021CA
:10211000096941F004014FF0E022116107E04FF03E
:10212000E021096921F004014FF0E02211617047BC
:102130000000FA050CED00E000E400E080E100E0C2
:1021400080FFFF1F10B504469848844208D1012142
:10215000084601F002FC0021012001F0FEFB76E0C0
:102160009348844208D10121022001F0F6FB0021AE
:10217000022001F0F2FB6AE08E48844208D101217E
:10218000042001F0EAFB0021042001F0E6FB5EE000
:102190008948844208D10121082001F0DEFB00219A
:1021A000082001F0DAFB52E08448844208D1012182
:1021B000102001F0D2FB0021102001F0CEFB46E000
:1021C0007F48844208D10121202001F0C6FB002174
:1021D000202001F0C2FB3AE07A48844208D1012174
:1021E000402001F0BAFB0021402001F0B6FB2EE0B8
:1021F0007548844208D10121802001F0AEFB002106
:10220000802001F0AAFB22E07048844208D101211D
:10221000801501F0A2FB0021A01501F09EFB16E045
:102220006B48844208D10121401501F096FB002142
:10223000601501F092FB0AE06648844207D1012153
:10224000001501F08AFB0021201501F086FB10BD6E
:10225000F0B50A4600210023002400BF3DE001251F
:1022600005FA01F3156805EA03049C4234D10568B8
:102270004F000326BE40B543056015794E00B540BA
:102280000668354305601579012D02D01579022DB8
:1022900016D185684F000326BE40B5438560557949
:1022A0004E00B540866835438560456801268E40FE
:1022B000B5434560456896798E40B6B23543456072
:1022C000C5684F000326BE40B543C560D5794E00B2
:1022D000B540C6683543C560491C1029BFD3F0BD61
:1022E0004FF6FF7101600021017141718171C1716F
:1022F000704708B54FF480320092009A0A4300926A
:10230000009AC261C161009AC261C2690092C26949
:10231000009208BD0246002013690B400BB101205A
:1023200000E0002070470146086980B2704702460D
:10233000002053690B400BB1012000E000207047E2
:102340000146486980B270470183704741837047F6
:102350000AB1018300E041837047416170474269DF
:102360004A4042617047F0B5002300244D07ED0E4E
:1023700002FA05F3CE1000F1200555F826504E075D
:10238000F70E0F26BE40B543CF1000F1200646F8E9
:102390002750CE1000F1200555F8265045EA0304D9
:1023A000CE1000F1200545F82640F0BD00000240A7
:1023B0000004024000080240000C024000100240ED
:1023C0000014024000180240001C0240002002409D
:1023D000002402400028024010B50446FA48844216
:1023E00008D10121102001F0FCFA0021102001F099
:1023F000F8FA57E0F548844209D10121480401F078
:10240000DFFA00214FF4003001F0DAFA4AE0F04838
:10241000844209D10121880401F0D2FA00214FF44D
:10242000802001F0CDFA3DE0EA48844209D1012143
:10243000C80401F0C5FA00214FF4002001F0C0FAF1
:1024400030E0E548844209D10121080501F0B8FADD
:1024500000214FF4801001F0B3FA23E0DF488442FA
:1024600008D10121202001F0BCFA0021202001F038
:10247000B8FA17E0DA48844209D10121880701F04F
:102480009FFA00214FF0804001F09AFA0AE0D54807
:10249000844207D10121400501F092FA0021600534
:1024A00001F08EFA10BD2DE9FF4705460E460024C7
:1024B000A14600BFA046B08900B100BF2C8A24F419
:1024C0004054F08804432C82AC8941F20C60844370
:1024D000B08831890843718908430443AC81AC8AD0
:1024E00024F44074B0890443AC82684601F0F9F8E2
:1024F000B548854202D0B948854202D1DDF80C903A
:1025000001E0DDF80890A88900F4004040B109EB33
:10251000C90000EB091031684900B0FBF1F707E092
:1025200009EBC90000EB091031688900B0FBF1F735
:102530006420B7FBF0F004012009642101FB10784E
:10254000A88900F4004040B1322000EBC800B0FB85
:10255000F1F000F00700044308E0322000EB08101F
:102560006421B0FBF1F000F00F0004432C81BDE8C2
:10257000FF874FF41651016000218180C1800181E5
:102580000C21418100218181704710B50246002055
:10259000108A20F470600B884C8823438C88234376
:1025A000CC8823431843108210BD00210180418054
:1025B0008180C180704721B1828942F400528281BA
:1025C00004E082894DF6FF731A4082817047028BC6
:1025D00002F47F420283028B0A430283704721B1D7
:1025E000828942F40042828103E08289C2F30E02B2
:1025F0008281704721B1828A42F40062828204E0C3
:10260000828A4FF2FF731A4082827047C1F3080238
:102610008280704701468888C0F308007047028AAC
:102620004FF6F0731A400282028A0A430282704710
:1026300021B1828942F00202828104E082894FF650
:10264000FD731A408281704782894FF2FF731A40EE
:10265000828182890A4382817047028A4FF6DF7342
:102660001A400282028A0A430282704721B1028A1A
:1026700042F48042028204E0028A4BF6FF731A4061
:1026800002827047818941F001018181704721B147
:10269000828A42F00802828204E0828A4FF6F7734F
:1026A0001A4082827047028BD2B20283028B42EAC6
:1026B00001220283704721B1828A42F02002828285
:1026C00004E0828A4FF6DF731A408282704721B19C
:1026D000828A42F01002828204E0828A4FF6EF730F
:1026E0001A4082827047828A4FF6FB731A408282B8
:1026F000828A0A438282704721B1828A42F00202B2
:10270000828204E0828A4FF6FD731A40828270470B
:102710001AB1838A0B43838202E0838A8B438382CC
:102720007047F0B50346002400260025002040F63F
:102730006A17B94200D100BF1846C1F3421401F034
:102740001F06012707FA06F5012C01D10C3004E021
:10275000022C01D1103000E014301AB107682F4369
:10276000076002E00768AF430760F0BD0246002043
:10277000B1F5007F00D100BF13880B400BB10120E1
:1027800000E00020704701F40072B2F5007F00D134
:1027900000BFCA430280704770B502460024002380
:1027A0000025002040F66A16B14200D100BFC1F3F7
:1027B000421501F01F03012606FA03F3012D13D180
:1027C0009689334017E000000010014000440040AB
:1027D00000480040004C0040005000400014014000
:1027E00000780040007C0040022D02D1168A334060
:1027F00001E0968A33400C12012606FA04F416888A
:10280000344013B10CB1012000E0002070BD10B5C0
:102810000022002340F66A14A14200D100BF0A1230
:1028200001249440A3B2DC43048010BD10B50446DB
:10283000FE48844208D10121084601F0D2F8002167
:10284000012001F0CEF89DE0B4F1804F08D10121C4
:10285000084601F0B5F80021012001F0B1F891E03F
:10286000F348844208D10121022001F0A9F8002197
:10287000022001F0A5F885E0EE48844208D101214C
:10288000042001F09DF80021042001F099F879E07E
:10289000E948844208D10121082001F091F8002183
:1028A000082001F08DF86DE0E448844208D1012150
:1028B000102001F085F80021102001F081F861E07E
:1028C000DF48844208D10121202001F079F800215D
:1028D000202001F075F855E0DA48844208D1012142
:1028E000022001F07EF80021022001F07AF849E090
:1028F000D548844209D10121080401F072F8002171
:102900004FF4803001F06DF83CE0D048844209D1AA
:102910000121480401F065F800214FF4003001F076
:1029200060F82FE0CA48844209D10121880401F0EF
:1029300058F800214FF4802001F053F822E0C548F8
:10294000844208D10121402001F03AF800214020C2
:1029500001F036F816E0C048844208D101218020F9
:1029600001F02EF80021802001F02AF80AE0BB488F
:10297000844207D10121801501F022F80021A01521
:1029800001F01EF810BD00220288A84B98420ED01C
:10299000AC4B98420BD0B0F1804F08D0A44B98427A
:1029A00005D0A44B984202D0A34B984204D14FF6D5
:1029B0008F731A404B881A43A04B984207D0A04B04
:1029C000984204D04FF6FF431A400B891A43028005
:1029D0004B68C3620B880385944B984202D0994B95
:1029E000984201D18B7A03860123838270474FF08E
:1029F000FF31416000210180018141808172704777
:102A00000185828270470A46002101884FF68F7344
:102A1000194011430180704741627047C16270479D
:102A20000146486A70470146088D704721B1028807
:102A300042F00202028004E002884FF6FD731A4061
:102A40000280704721B1028842F00402028004E053
:102A500002884FF6FB731A400280704721B102884A
:102A600042F08002028004E002884FF67F731A4031
:102A70000280704702884FF6F7731A40028002887E
:102A80000A430280704702884FF6FF431A400280D3
:102A900002880A430280704721B1028842F0010295
:102AA000028004E002884FF6FE731A4002807047ED
:102AB00070B5002400220023058C4FF6FE763540C9
:102AC0000584028C8388048B4FF68F752C40B51ECD
:102AD0002C400D882C43751E2A408D892A434D8831
:102AE0002A43524DA84202D0564DA84213D14FF668
:102AF000F7752A40CD892A434FF6FB752A408D8809
:102B00002A434FF6FF652B404FF6FF552B400D8AA9
:102B10002B434D8A2B43838004838D684563028455
:102B200070BD70B5002400220023058C4FF6EF76AF
:102B300035400584028C8388048B48F6FF752C4051
:102B40004FF6FF452C400D884FF6FF7606EA052527
:102B50002C434FF6DF752A408D8906EA05152A4376
:102B60004D8806EA05152A43304DA84202D0354D5E
:102B7000A8421DD14FF67F752A40CD894FF6FF76CA
:102B800006EA05152A434FF6BF752A408D8806EAE6
:102B900005152A434FF6FF352B404FF2FF752B40AA
:102BA0000D8A06EA85052B434D8A06EA85052B43E7
:102BB000838004838D688563028470BD70B50024B2
:102BC00000220023058C4FF6FF6635400584028CF9
:102BD0008388848B4FF68F752C404FF6FC752C4004
:102BE0000D882C434FF6FF552A408D894FF6FF760E
:102BF00006EA05252A434D8806EA05252A430B4D9A
:102C0000A84202D00F4DA84238D14FF2FF752A409A
:102C1000CD894FF6FF7606EA05252A434FF6FF35A4
:102C20002A408D8806EA05252A4319E00000014064
:102C30000004004000080040000C0040001000406C
:102C400000140040000401400040014000440140E5
:102C50000048014000180040001C004000200040D7
:102C60004EF6FF752B404DF6FF752B400D8A06EA98
:102C700005152B434D8A06EA05152B438380848373
:102C80008D68C563028470BD70B5002200230024E6
:102C9000058C4EF6FF7635400584038C8488828B44
:102CA00048F6FF752A404FF6FF452A400D884FF63B
:102CB000FF7606EA05252A434DF6FF752B408D89E0
:102CC00006EA05352B434D8806EA05352B43FE4DB4
:102CD000A84202D0FD4DA84208D14BF6FF752C400A
:102CE0000D8A4FF6FF7606EA85152C438480828391
:102CF0008D680564038470BD00210180418081805E
:102D000081608181C18101824182704770B5034633
:102D1000002000241846183001258D40ACB21D8CCF
:102D2000A5431D8409B108290AD100EB610005689B
:102D30004FF68F76354005600568154305600FE056
:102D40000D1FC5F34E052844056848F6FF7635404B
:102D5000056005684FF6FF7606EA022635430560F2
:102D600070BD4163704781637047C1637047016400
:102D700070470A460021018B4FF68F7319401143AB
:102D8000018370470A460021018B48F6FF73194002
:102D90004FF6FF7303EA02231943018370470A4683
:102DA0000021818B4FF68F73194011438183704747
:102DB0000A460021818B48F6FF7319404FF6FF73D6
:102DC00003EA02231943818370470A460021018BDD
:102DD0004FF6F77319401143018370470A460021EB
:102DE000018B4FF2FF7319404FF6FF7303EA022382
:102DF0001943018370470A460021818B4FF6F77310
:102E000019401143818370470A460021818B4FF29C
:102E1000FF7319404FF6FF7303EA022319438183BE
:102E200070470A460021018B4FF6FB73194011438E
:102E3000018370470A460021018B4FF6FF3319408A
:102E40004FF6FF7303EA02231943018370470A46D2
:102E50000021818B4FF6FB7319401143818370472A
:102E60000A460021818B4FF6FF3319404FF6FF735E
:102E700003EA02231943818370470A460021018B2C
:102E80004FF67F7319401143018370470A460021B2
:102E9000018BC1F30E014FF6FF7303EA02231943BE
:102EA000018370470A460021818B4FF67F731940DA
:102EB0001143818370470A460021818BC1F30E01C3
:102EC0004FF6FF7303EA02231943818370470A46D2
:102ED0000021018C4FF6FD731940114301847047A6
:102EE0000A460021018C4FF6F77319401143018403
:102EF00070470A460021018C4FF6DF7319404FF6E8
:102F0000FF7303EA02131943018470470A46002144
:102F1000018C4FF67F7319404FF6FF7303EA0213DB
:102F20001943018470470A460021018C4FF6FF5374
:102F300019404FF6FF7303EA0223194301847047D7
:102F40000A460021018C4FF2FF7319404FF6FF73C0
:102F500003EA02231943018470470A460021018CC9
:102F60004DF6FF7319404FF6FF7303EA023319431E
:102F70000184704730B5002301248C40A3B2048C37
:102F80009C430484048C02FA01F5ADB22C43048402
:102F900030BD30B5002304248C40A3B2048C9C4384
:102FA0000484048C02FA01F5ADB22C43048430BDD4
:102FB000828B4FF2FF331A408283828B4FF6FF736E
:102FC00003EA01231A4382837047F0B50C46154685
:102FD000002100220026078C4EF6FF7C07EA0C0732
:102FE0000784818B028C4FF6FF7707EA043640F6A0
:102FF000FF4739404FF6FF7707EA052739434FF679
:10300000FF7707EA0337394345F6FF773A4046F43E
:1030100080573A4381830284F0BD828B4FF6F3736D
:103020001A408283828B0A4382837047F0B50C4634
:103030001546002100220026078C4FF6FF6C07EA98
:103040000C070784818B028C4FF6FF7707EA042672
:103050004FF60C7739404FF6FF7707EA03172F43F7
:1030600039434FF2FF573A4046F480773A43818321
:103070000284F0BD028B4FF2FF331A400283028BB1
:103080004FF6FF7303EA01231A4302837047F0B53A
:103090000C461546002100220026078C4FF6EF7CD7
:1030A00007EA0C070784018B028C4FF6FF7707EACB
:1030B000041640F6FF4739404FF6FF7707EA03371B
:1030C00039434FF6FF7703E0000001400004014060
:1030D00007EA052739434FF65F773A4046F0100775
:1030E0003A4301830284F0BD028B4FF6F3731A401A
:1030F0000283028B0A4302837047F0B50C461546E3
:1031000000210022068C4FF6FE773E400684018B9C
:10311000028C4FF60C7631407E1C06EA03162E43D5
:1031200031434FF6F576324044F0010632430183D5
:103130000284F0BD70B505460C46208850B923893D
:10314000A28861882846FFF7D8FFE1882846FFF764
:10315000CBFF25E0208804280AD12389A288618832
:103160002846FFF794FFE1882846FFF783FF17E022
:10317000208808280AD12389A28861882846FFF779
:1031800055FFE1882846FFF748FF09E02389A28818
:1031900061882846FFF719FFE1882846FFF708FFF6
:1031A00070BD002101804180012181800021C1800A
:1031B000018170472DE9F04105460C4600260127A4
:1031C000608808B9022600E00026A088012801D105
:1031D000022700E001272088A0B92389A2886188FE
:1031E0002846FFF78AFFE1882846FFF77DFF2389FD
:1031F0003A4631462846FFF74AFFE1882846FFF75E
:1032000039FF13E02389A28861882846FFF73FFF32
:10321000E1882846FFF72EFF23893A4631462846A3
:10322000FFF76BFFE1882846FFF75EFFBDE8F081FE
:103230000146486B70470146886B70470146C86B72
:1032400070470146086C70470A884B881A438B8880
:103250001A43CB881A430B891A434B891A438B892B
:103260001A43A0F8442070470021018041808180EA
:10327000C180018141818181704731B1B0F8442022
:1032800042F40042A0F8442005E0B0F84420C2F324
:103290000E02A0F84420704721B1828842F0040257
:1032A000828004E082884FF6FB731A408280704768
:1032B00021B1828842F00102828004E082884FF6C8
:1032C000FE731A40828070471AB183890B43838151
:1032D00002E083898B438381704781827047024675
:1032E0000020138A0B400BB1012000E00020704742
:1032F000CA430282704730B50246002000230024F2
:10330000158A05EA0103958905EA010413B10CB198
:10331000012000E0002030BDCA430282704741EA2C
:103320000203A0F8483070471AB183890B438381A8
:1033300002E083898B438381704721B1828842F008
:103340000802828004E082884FF6F7731A40828078
:10335000704701894FF6F8721140018170470A46A3
:10336000002101894FF68F73194011430181704785
:1033700030B504460D4629462046FFF7F0FF208968
:1033800040F00700208130BD2DE9F04104460D4694
:1033900016461F46602D06D13B4601223146204687
:1033A000FFF775FE05E03B46012231462046FFF758
:1033B000A4FE29462046FFF7D2FF208940F00700EF
:1033C0002081BDE8F08130B50C4600210189C9B2E9
:1033D0004FF6FF7505EA032515432543294301816F
:1033E00030BD2DE9F04105460E46174698460024AB
:1033F00043463A4631462846FFF7E5FF2C894FF60B
:10340000F870044044F007044FF68F70044044F015
:1034100070042C81BDE8F081F0B504460D461646D7
:103420001F463B46324629462046FFF7CCFF2089FF
:1034300040F480402081F0BD82884FF68F731A409F
:10344000828082880A438280704702894FF6F8732F
:103450001A40028102890A430281704702894FF6AD
:103460007F731A40028102890A4302817047F0B5D6
:103470000C4615461E460021002200230189028BBE
:10348000038C4FF6F877394021434FF6FC473A401A
:1034900040F201173A434FF6DD773B404FF6FF7796
:1034A00007EA06172F433B43018102830384F0BDE3
:1034B00021B1828842F08002828004E082884FF647
:1034C0007F731A4082807047A0F850107047000048
:1034D000F948006840F00100F74908600020F6490B
:1034E00008310860F4480068F4490840F24908606F
:1034F000F348091D0860F348EF4984310860F0483B
:103500001038091D0860EC48006820F48020EA4962
:1035100008600020E8490C310860E7498C310860F8
:1035200070470021E44A921C1170114608707047E0
:1035300010B501460022002300204A11012A02D1C1
:10354000DD4C236808E0022A03D1DB4C7034236889
:1035500002E0D94C7434236801F01F020124944026
:103560001C400CB1012000E0002010BD38B5002047
:1035700000900024002500BF3120FFF7D9FF054649
:103580000098401C00900098B0F5A04F01D0002D8D
:10359000F2D03120FFF7CCFF08B1012400E0002475
:1035A000204638BD01460020C34A106820F0F800CC
:1035B00040EAC10010607047C349086070470021AD
:1035C000BD4A703211701170012802D004280AD14E
:1035D00004E00121B84A7032117005E00521B64AB5
:1035E0007032117000E000BF00BF7047B74908603B
:1035F000704770B5049C41EA82150126C6EB53065C
:1036000045EA0645054345EA0465AB4E361D35607F
:1036100070BDAD4908667047820142EA0172A64B4F
:1036200084331A607047A8498866704710B58301D3
:1036300043EA016343EA02739F4C8834236010BD60
:10364000A14908677047A049C86470470246002036
:10365000994B0833186820F0EC6042EA01031843E4
:10366000954B08331860704702460020924B083390
:10367000186820F0784042EA010318438E4B083363
:1036800018607047014600208B4A0832106820F00D
:10369000030008431060704787480830006800F056
:1036A0000C00704701460020834A0832106820F061
:1036B000F000084310607047014600207E4A08323F
:1036C000106820F4E0500843106070470146002065
:1036D000794A0832106820F4604040EAC100106066
:1036E0007047F0B5002100220024022500260223A5
:1036F000714F08373F6807F00C0121B1042905D04C
:10370000082937D105E0724F076036E0714F076036
:1037100033E0694F3F1D3F68C7F38056664F3F1D3A
:103720003F6807F03F036EB16A4FB7FBF3F7DFF86E
:1037300088C10CF1040CDCF800C0CCF3881C07FB3A
:103740000CF40CE0624FB7FBF3F7DFF86CC10CF13F
:10375000040CDCF800C0CCF3881C07FB0CF4564FBB
:103760003F1D3F68C7F301477F1C7D00B4FBF5F7A1
:10377000076002E0564F076000BF00BF4E4F08379A
:103780003F6807F0F0010909534F7A5C0768D7409A
:103790004760494F08373F6807F4E051890A4E4FA8
:1037A0007A5C4768D7408760434F08373F6807F423
:1037B0006041490B484F7A5C4768D740C760F0BD0D
:1037C000002100F44072B2F5407F0AD13A4A083233
:1037D000116821F4F811414A02401143364A083277
:1037E0001160354A70321268C0F30B031A43324B32
:1037F00070331A607047354944390860704733495F
:10380000403908607047364908607047014600201B
:10381000294A8C32106820F01F004A1E1043264AA5
:103820008C321060704701460020234A8C321068A9
:1038300020F4F8504A1E40EA02201F4A8C321060E1
:103840007047014600201C4A8C32106820F440105A
:1038500008431060704701460020174A8C321068F8
:1038600020F4400008431060704701460020124ACF
:103870008C32106820F440300843106070471949BA
:103880000860704739B10C4A3032126802430A4B63
:1038900030331A6006E0084A303212688243064B21
:1038A00030331A607047F9B1034A34321268024368
:1038B000014B34331A601CE000380240FFFFF6EA87
:1038C000103000240030002000004742800E4742A4
:1038D0000024F40000127A0002010020FFFCFF0F18
:1038E0005C014742E01147428F4A126882438E4B87
:1038F0001A60704739B18C4A121D126802438A4B14
:103900001B1D1A6006E0884A121D12688243864B0E
:103910001B1D1A60704739B1834A0C32126802438A
:10392000814B0C331A6006E07F4A0C3212688243E6
:103930007D4B0C331A60704739B17B4A10321268E4
:103940000243794B10331A6006E0774A103212684E
:103950008243754B10331A60704739B1724A243A6A
:1039600012680243704B243B1A6006E06E4A243A08
:10397000126882436C4B243B1A60704739B16A4A23
:10398000203A12680243684B203B1A6006E0664A00
:10399000203A12688243644B203B1A60704739B169
:1039A000614A1C3A126802435F4B1C3B1A6006E0F6
:1039B0005D4A1C3A126882435B4B1C3B1A6070479D
:1039C00039B1594A143A12680243574B143B1A60F2
:1039D00006E0554A143A12688243534B143B1A606E
:1039E000704739B1504A103A126802434E4B103BAF
:1039F0001A6006E04C4A103A126882434A4B103B68
:103A00001A60704739B1484A1C3212680243464B6B
:103A10001C331A6006E0444A1C3212688243424B4F
:103A20001C331A60704739B13F4A20321268024392
:103A30003D4B20331A6006E03B4A20321268824335
:103A4000394B20331A60704739B1374A2432126833
:103A50000243354B24331A6006E0334A243212689D
:103A60008243314B24331A60704739B12E4A2C32CD
:103A7000126802432C4B2C331A6006E02A4A2C327F
:103A800012688243284B2C331A60704739B1264A9A
:103A9000303212680243244B30331A6006E0224A67
:103AA000303212688243204B30331A60704701284D
:103AB00008D11D493C31096841F008011A4A3C32DD
:103AC000116007E018493C31096821F00801164AE5
:103AD0003C321160704739B1134A273A12780243D9
:103AE000114B273B1A7006E00F4A273A127882439F
:103AF0000D4B273B1A7070470B484030006840F070
:103B00008070094940310860704701460020064A2C
:103B1000283A12680A400AB1012000E000207047EC
:103B200001492639087070473438024010B5012128
:103B30000802FFF756FF00214FF48070FFF751FF96
:103B400010BD30B50246002000235068F84C2040DC
:103B50000D790C6844EA0524204350609068F54CC8
:103B60002040D1E903542C438D682C434D7944EA1D
:103B7000450420439060D06A20F470000C7D641EE0
:103B8000E4B2234340EA0350D06230BD002101601B
:103B9000017141718160C16001610121017570474E
:103BA0000021E54A1168E54A1140D0E900231A4393
:103BB00083681A43C3681A431143E14AC2F80413E5
:103BC00070470021016041608160C160704721B190
:103BD000826842F00102826003E0826822F0010202
:103BE000826070470A4600214168D64B1940114354
:103BF000416070474162826270470A460021416815
:103C000021F01F0111434160704738B1CA4909686A
:103C100041F40001CA4AC2F8041306E0C649096823
:103C200021F40001C64AC2F80413704738B1C249F2
:103C3000096841F48001C24AC2F8041306E0BE4993
:103C4000096821F48001BE4AC2F804137047F0B538
:103C500004460D4600200021092D11DDE068A5F184
:103C60000A0606EB4607072606FA07F18843A5F180
:103C70000A0606EB460603FA06F10843E0600CE08C
:103C8000206905EB4507072606FA07F1884305EB8F
:103C9000450603FA06F108432061072A0FDA606B34
:103CA000561E06EB86071F2606FA07F18843561EA6
:103CB00006EB860605FA06F10843606322E00D2A4A
:103CC0000FDA206BD61F06EB86071F2606FA07F1D0
:103CD0008843D61F06EB860605FA06F108432063E3
:103CE00010E0E06AA2F10D0606EB86071F2606FA31
:103CF00007F18843A2F10D0606EB860605FA06F1E8
:103D00000843E062F0BD816841F080418160704706
:103D1000014600208A6802F080420AB1012000E0DA
:103D20000020704721B1826842F48062826003E023
:103D3000826822F480628260704721B1826842F01A
:103D40000202826003E0826822F002028260704711
:103D500010B50A4600210023416821F46041531E3A
:103D600041EA4331416010BD21B1426842F4006232
:103D7000426003E0426822F40062426070470146FC
:103D8000C86C80B270476C48001D0068704721B154
:103D9000826842F48072826003E0826822F480725A
:103DA0008260704721B1826842F40072826003E051
:103DB000826822F400728260704738B15E490968F7
:103DC00041F400515E4AC2F8041306E05A490968FA
:103DD00021F400515A4AC2F804137047F0B5044662
:103DE0001546002000220026092911DDE068A1F116
:103DF0000A0707EB470C072707FA0CF29043A1F1DB
:103E00000A0707EB470703FA07F21043E0600CE0EC
:103E1000206901EB410C072707FA0CF2904301EBF4
:103E2000410703FA07F210432061A06BC0F301566B
:103E3000EF1C06F1010CA7EB0C0707EB870C1F2703
:103E400007FA0CF29043EF1C06F1010CA7EB0C07EC
:103E500007EB870701FA07F21043A063F0BD10B526
:103E60000A4600210023816B21F44011531E41EAD0
:103E70000351816310BD08B5002300930090009B9F
:103E80000B440093009B1A6008BD0A46002181681C
:103E900021F470211143816070470A460021816836
:103EA00021F44011114381607047816841F4800121
:103EB00081607047014600208A6802F480020AB1DE
:103EC000012000E00020704721B1426842F4806286
:103ED000426003E0426822F480624260704721B190
:103EE000426842F48052426003E0426822F4805209
:103EF0004260704708B5024600200090009201F130
:103F00002800009B184400900098006880B208BD0B
:103F100010B50B460021D9B2012404FA01F11AB1FF
:103F200044680C43446002E044688C43446010BD24
:103F3000FFFEFFFCFDF7FFC004230140E030FCFF63
:103F400000200140FFFD3FFF0246002013680B40A8
:103F50000BB1012000E000207047CA4302607047A7
:103F600070B502460020002300240B12556801267C
:103F70008E4005EA060415681D4015B10CB10120FC
:103F800000E0002070BD00220A12D3430360704796
:103F900010B501214807FFF713FD00214FF0005035
:103FA000FFF70EFD10BD30B5002200237B4C2268C8
:103FB00040F6FE748440A243D1E900452C438D684D
:103FC0002C43CD6844EA050303FA00F42243734C02
:103FD000226030BD0021016041608160C160704796
:103FE00039B16E4A1268012383401A436B4B1A6041
:103FF00006E06A4A1268012383409A43674B1A60BD
:10400000704710B551B1654A121D126804090123A9
:10401000A3401A43614B1B1D1A6009E05F4A121D41
:10402000126804090123A3409A435C4B1B1D1A60CC
:1040300010BD40B15949091D096841F00301574AB3
:10404000121D116007E05549091D096821F003019F
:10405000524A121D1160704710B53AB14F4B1B68A0
:1040600001FA00F423434D4C236006E04B4B1B68E0
:1040700001FA00F4A343494C236010BD08B50022A7
:104080000092464A009200F10802009B1A440092F6
:10409000009A116008BD08B5002200923F4A0092C4
:1040A00000F11402009B1A440092009A116008BDAE
:1040B00030B500240023082802D142EA012401E09F
:1040C00042EA0144354B00F120052B441C6030BD11
:1040D00008B5014600200090304800902C2000EBED
:1040E0009100009A104400900098006880B208BDCA
:1040F00041B12A4A12684FF4805383401A43274B38
:104100001A6007E0254A12684FF4805383409A43AF
:10411000224B1A60704710B53AB1204B1B6801FA68
:1041200000F423431D4C236006E01C4B1B6801FA7E
:1041300000F4A343194C236010BD10B502460020C3
:10414000164B34331B6801FA02F423400BB10120F3
:1041500000E0002010BD01FA00F2104B34331A6069
:10416000704730B50246002000230C4C246801FA49
:1041700002F504EA0503094C3434246801FA02F517
:104180002C4014B10BB1012000E0002030BD01FA39
:1041900000F2024B34331A60704700000074004094
:1041A0007047704770477047704710B500F008F8C7
:1041B000006810BD10B5044600F002F8046010BDA0
:1041C00000487047DC01002000487047DC010020F7
:1041D0007546FFF7F9FFAE4605006946534620F0E5
:1041E0000700854618B020B5FDF72AFFBDE820403E
:1041F0004FF000064FF000074FF000084FF0000BA3
:1042000021F00701AC46ACE8C009ACE8C009ACE855
:10421000C009ACE8C0098D46704710B50446AFF33D
:1042200000802046BDE81040FBF7F7BF000000000B
:104230002DE9F0412DED020B9FED3D0B2DED028B95
:104240009FED3D8BDDE90254C4F30A50A0F2FF3626
:10425000142E37DA002E18DA53EC102B9DED020BDA
:1042600051EC100B00F042FB53EC182B00F048FF10
:1042700057D2002CA4BF0024254652DA24F0004077
:10428000284318BF2E4C4CD01AE02E4820FA06F7CF
:1042900004EA070028431FD053EC102B9DED020BBE
:1042A00051EC100B00F022FB53EC182B00F028FF10
:1042B00037D2002C03DA4FF48010F0400444BC43A2
:1042C00000252EE0332E07DCA6F114004FF0FF315D
:1042D00021FA00F73D4206D19DED020BBDEC028BA9
:1042E00002B0BDE8F08153EC102B9DED020B51ECB8
:1042F000100B00F03BFF53EC182B00F001FF10D225
:10430000002C0DDA142E08BF641C09D0C6F134004D
:10431000012101FA00F02844A84238BF641C054678
:10432000BD43CDE902549DED020BD7E7000000002C
:104330009C7500883CE4377E00000000000000000F
:104340000000F0BFFFFF0F0070B5D94B00242DED2A
:10435000020B2DED108BDDE91010984205DA20F0EC
:1043600000429A4201D809D141B19DED100BBDEC3C
:10437000108B02B0BDE8704000F05EBAB0F5801F4F
:1043800026DA11430BD0002813DA0120FFF712FFC1
:10439000BDEC108B02B0BDE8704000F059BA0220AD
:1043A000FFF708FF00F030FA51EC100B00F060FA54
:1043B0009EE06FF035049FEDC00B53EC102B9DED8C
:1043C000100B51EC100B00F09DFDCDE910010846DB
:1043D00004EB2051C0F31304B948A1F2FF3120448B
:1043E00000F4801080F07F6282F04052224301EBA3
:1043F00020559FEDB50B119253EC102B9DED100B3A
:1044000051EC100B00F0BEFE41EC180BA01CC0F3E9
:1044100013009FEDAFDB9FEDB0EBB14E7E44032860
:104420006CD296ED000B51EC180B53EC102B00F0F6
:1044300069FC1DD1002D01BF96ED000BBDEC108B6A
:1044400002B070BD284600F0F6FC41EC180B53ECAE
:104450001D2B00F057FD41EC190B53EC1E2B51ECBA
:10446000180B00F04FFD53EC192B00F03FFA3FE022
:104470009FED9D0B51EC180B53EC102B00F042FDFF
:104480009FED9B1B53EC112B00F070FE41EC190BC0
:1044900053EC182B51EC180B00F034FD53EC192B96
:1044A00000F030FD41EC190B002D04BF53EC192B2B
:1044B00051EC180B1AD0284600F0BDFC41EC1A0B49
:1044C00053EC1D2B00F01EFD53EC192B00F04EFE9B
:1044D00053EC182B00F056FE41EC180B53EC1E2B3E
:1044E00051EC1A0B00F00EFD53EC182B00F04AFEB5
:1044F000BDEC108B02B041EC100B70BD9FED7E0B3C
:1045000051EC180B53EC102B00F0F0F941EC100BB0
:1045100051EC180B53EC102B00F09CFA41EC190BEA
:10452000284600F088FC41EC1B0B53EC192B51EC96
:10453000190B00F0E7FC41EC1A0B714853EC1A2BF5
:10454000261851EC1A0B00F0DDFC41EC1F0B6D48F6
:10455000C4F1510404F5D724B0EE4F0AF0EE6F0A0F
:104560000321784400F0D2F853EC1F2B51EC100BD0
:1045700000F0C8FC41EC1C0B6348B0EE4F0AF0EEB3
:104580006F0A0421784400F0C1F853EC1A2B51EC67
:10459000100B00F0B7FC344353EC1C2B00F0A6F9D1
:1045A00041EC1C0B002C4CDD9FED510B51EC180B1A
:1045B00053EC102B00F0A6FC53EC182B00F0A2FCDF
:1045C00041EC1A0B55B353EC1D2B51EC1B0B00F0B7
:1045D00099FC41EC1D0B53EC1C2B51EC1A0B00F019
:1045E00085F953EC192B00F08DFC53EC1D2B00F0DA
:1045F0007DF953EC1A2B00F0B9FD53EC182B00F0A9
:10460000C1FD41EC180B53EC1E2B51EC1B0B00F0C1
:1046100079FC53EC182B00F0B5FD69E753EC1C2B2B
:1046200051EC1A0B00F062F953EC192B00F06AFC04
:1046300053EC1A2B00F09AFD53EC182B00F096FD6A
:1046400056E735B353EC1D2B51EC1B0B00F05AFC15
:1046500041EC1A0B53EC1C2B51EC180B00F092FDA3
:1046600053EC192B00F04EFC53EC1A2B00F08AFD92
:1046700053EC182B00F086FD41EC180B53EC1E2B6D
:1046800051EC1B0B00F03EFC53EC182B00F07AFDB4
:104690002EE753EC1C2B51EC180B00F073FD53EC80
:1046A000192B00F02FFC53EC182B00F05FFD1FE7D7
:1046B0000000F07F000000000000000000005043F8
:1046C000645F090000000000000000000000F03FEF
:1046D000763C7935EF39EA3D0000E0FE422EE63FB8
:1046E0006810000000000000555555555555D53F40
:1046F000000000000000E03F00000000000000405B
:1047000086EBF9FFEA0E0000E00E000070B50446EB
:104710002DED028B4D1E00EBC500B0EE408AF0EE91
:10472000608A90ED000B35F0060017D053EC182B83
:1047300051EC100B00F0E6FB41EC100B6D1E04EB8E
:10474000C50090ED001B51EC100B53EC112B00F049
:10475000CDF841EC100B35F00600E7D1022D36D034
:10476000042D1CD0062D1CBFBDEC028B70BD53EC7C
:10477000182B51EC100B00F0C5FB94ED0A1B53EC09
:10478000112B00F0B3F853EC182B00F0BBFB94EDA9
:10479000081B53EC112B00F0A9F841EC100B53EC63
:1047A000182B51EC100B00F0ADFB94ED061B53ECF5
:1047B000112B00F09BF853EC182B00F0A3FB94EDA9
:1047C000040B53EC102B00F091F841EC100B53EC60
:1047D000182B51EC100B00F095FB94ED021B53ECE1
:1047E000112B00F083F853EC182B00F08BFB94EDA9
:1047F000001B53EC112B00F079F8BDEC028B41EC5F
:10480000100B70BD000000009FED070B10B553ECBE
:10481000102B9FED070B51EC100B00F01BF941EC36
:10482000100B10BD000000000000000000000000A0
:10483000000000000000F03F10B553EC102B51ECCD
:10484000100B00F053F841EC100B10BD00000000FD
:104850009FED050B10B553EC102B51EC100B00F035
:10486000F9F841EC100B10BD000000000000000042
:1048700081F00041704780F00040704721F0004116
:10488000704720F00040704721F00042A2F16052D2
:10489000B2F5801F01F0004328BFD2F17F6C0BD925
:1048A0005FEA001C43EAC20242EB507018BF704737
:1048B00028BF20F001007047B2F5801FBCBF18462A
:1048C00070474FEA410C1CF5001F02D2084600F069
:1048D000B9BD70B500F0C0FB00000089FFF7F6BF5E
:1048E0004FF00040A0F580007047000010B591EA3D
:1048F000030F48BF83F0004300F14C84841A71EB2E
:10490000030C05D2121943EB0C03001B61EB0C01E5
:10491000DFF824E14FEA1154A4EB135C1EEA430FC5
:1049200018BF9EEA445F73D023EA0E03DCF1200E29
:1049300021EA045143F4801332D322FA0CFE10EB27
:104940000E0023FA0CFE41EB0E01CCF1200E03FA0F
:104950000EFE10EB0E0051F10001B1F5801FCCF1FD
:10496000200E32D201EB045112FA0EF2BDE81040D3
:1049700058BF7047401C38BF5FEA420218BF7047FB
:10498000002814BF20F0010041F100014FEA41036B
:1049900013F5001F38BF7047A1F1C04100F0AABB5A
:1049A000012A43EB0302ACF1200CDCF11F0E32BFF5
:1049B0004FF0000E23FA0CF310EB030041EB04510F
:1049C000B4EB115FD0D0A1EB045101F5801149087F
:1049D0005FEA300001EB04510ED350F1000038BF04
:1049E00012FA0EFE08D1BDE81040C9E7401C38BFDE
:1049F0005FEA4202CAD1C3E7BDE810404FEA410373
:104A000013F5001F38BF7047A1F1C04100F072BB21
:104A10009EEA445F08D011EA5E0FBDE8104004BF73
:104A200001F0004100207047BDE8104070B500F073
:104A300013FB00BF64FBBE3E0000E0FF491058BFFF
:104A4000C1F140415B1058BFC3F140438B42EFF3CB
:104A5000008070472DE9C04130B4DFF8A0C23CEAC5
:104A6000111418BF3CEA131400F0EC8081EA03052E
:104A70001CEA111444EAD57418BF1CEA131500F09F
:104A8000C780A4EB05044FF0004545EAC12145EA83
:104A9000C32341EA505143EA525304F17F749942CF
:104AA00004F500344FEAC0204FEAC22208BF90420A
:104AB00000F09C804FEA13650FF24016765D4FEAD6
:104AC000134506FB05F7C7F1807706FB07F74FEAAA
:104AD000D737A7FB03687642C8F58038A7FB06CE18
:104AE00038BFA8F1010807FB08E64FF0000EA6FB4F
:104AF000028CE6FB03CEDCF1000CCEF1004E38BF99
:104B0000AEF1010EA6FB0C584FF000074FF0000568
:104B1000E6FB0E87A1FB08C6A0FB07CE16EB0E0630
:104B200045F10005E1FB076515F1E04E7EBFA4F5F8
:104B300080345FEA46066D4116F1800745F10005B5
:104B40004FEA17274FEA066647EA0567A6F1DE46F1
:104B5000B6F1805F4FEA15251FD9384624F0010CC5
:104B600005EBC471BCF1FE6F01EB0C1102D8F0BC77
:104B7000BDE8008124425CBF01F5801E9EEAC47F2F
:104B800002D4F0BCBDE80081244238D4F0BCA1F1CD
:104B9000C041BDE8004100F0ADBA4FEAD22242EA7E
:104BA00043524FEAD323A7FB02864FEAD02040EAC4
:104BB000415007FB03661EEA0E0F4FEAD12105FBA9
:104BC000026658BFA6EB0056B6EB00564FEA520EEF
:104BD0004EEAC37E18EB0E0E56EB530EBDD518EB06
:104BE00002085E417F1C55F10005B6E74FF48015C1
:104BF0004FF000074FF000064FF00008ADE7F0BCA3
:104C00004FF0000001F1C04101F00041BDE800811A
:104C100011EA0C1F0CEA131500D00CE013EA0C1F6C
:104C200000F025804FF00000F0BC81EA030101F0A4
:104C30000041BDE80081F0BCBDE8004181EA03010C
:104C400000F058BAF0BCBDE8004170B500F004FABD
:104C5000097EFC3E00F007B881EA03014FF0000036
:104C600001F00041704781EA030100F043BAF0BC53
:104C7000BDE800414FF0000021497047FFFDFBF9FE
:104C8000F7F5F4F2F0EEEDEBE9E8E6E4E3E1E0DE7F
:104C9000DDDBDAD8D7D5D4D3D1D0CFCDCCCBCAC8F1
:104CA000C7C6C5C4C2C1C0BFBEBDBCBBBAB9B8B718
:104CB000B6B5B4B3B2B1B0AFAEADACABAAA9A8A80B
:104CC000A7A6A5A4A3A3A2A1A09F9F9E9D9C9C9BD9
:104CD0009A99999897979695959493939291919084
:104CE0008F8F8E8E8D8C8C8B8B8A89898888878715
:104CF0008685858484838382828181800000FF078A
:104D00000000F87F51EA030C17D41CF5801F58BF30
:104D1000BCF5801F00F10680994218BF704708BF9C
:104D20009042704707D711F5801F58BF13F5801FB9
:104D300019D499427047894270471CF5801F08D5E5
:104D4000BCF5801FF7D58B4218BF704708BF824261
:104D500070474FF4001C1CEB410F38BF1CEB430F96
:104D600001D28B42704770B500F076F99224490069
:104D70004FF000514FF08053FFF760BE4FEA410300
:104D80004FEA5353A3F58063D3F11E03C8BFD3F199
:104D9000210C0CDD4FF0004242EAC12242EA50529F
:104DA00032FA03FC8CEAE17CACEBE1707047102B2B
:104DB000C4BF0020704703F5787CBCF1FF3F04D0EE
:104DC0006FF0004282EA2100704770B500F044F9AC
:104DD0004992248000207047F2E700004FEA115307
:104DE000A3F58063D3F11E03A8BFD3F1200C08DB29
:104DF0004FF0004242EAC12252EA505232FA03F026
:104E0000704709420BD4102BC4BF0020704703F534
:104E1000787CBCF1FF3F05D04FF0FF3070474FF07A
:104E20000000704770B500F017F900BF4992248068
:104E300000207047F0E710F0004248BF4042B0FA4F
:104E400080F310FA03F10AD0C3F11D0303F5806368
:104E50004FEA415002EB035202EBD12170474FF071
:104E600000007047B0FA80F310FA03F10AD0C3F1E2
:104E70001D0303F580634FEA41504FEA035202EBF2
:104E8000D12170474FF000007047000051EA030C39
:104E900017D41CF5801F58BFBCF5801F00F1068099
:104EA000994218BF704708BF9042704707D711F565
:104EB000801F58BF13F5801F19D49942704789424B
:104EC00070471CF5801F08D5BCF5801FF7D58B42B5
:104ED00018BF704708BF824270474FF4001C1CEB9C
:104EE000410F38BF1CEB430F01D28B42704770B5A6
:104EF00000F0B2F8922449004FF000514FF0805377
:104F0000FFF79CBDDFF848C170B51CEA111E1EBF3B
:104F10001CEA13159EEA0C0F95EA0C0F00F06F8047
:104F200081EA030423EA4C134EEAD47E21EA4C11B1
:104F300041F4801143F48013AE44A1FB024CA0FB6A
:104F40000365AEF17F7E361955EB0C05A1FB034CD2
:104F50004CF10003A0FB021C16EB0C06654153F15B
:104F60000003094218BF46F0010613F4007F0BD17D
:104F70004FEA03314FEA0530340341EA155140EA64
:104F800016506FF003020AE04FEAC3214FEAC52032
:104F9000F40241EA555140EA56506FF0020202EB2A
:104FA0002E4201EB025585EACE710AD05FEA440C2D
:104FB00018BF24F0004450F1000041F1000120EA44
:104FC000D47040F2FE7C624500D270BDA84214BF8E
:104FD0004FF080444FF04044002E08BF0024BEF143
:104FE000806FA8BFA1F1C041BDE8704080F282800F
:104FF0004FF0000001F1C04101F0004170479EEA0E
:105000000C0F0CEA131518BF95EA0C0F06D04FF0E1
:10501000000081EA030E0EF0004170BD00F01CF8A4
:105020008900013E00F007B800F009B84FEA430CD0
:105030005FEA5C5C08D081EA030100F05BB84FEAEC
:10504000410C5FEA5C5CF6D14FF00000014970470B
:105050000000FF070000F87F0EF1020E2EF0030E95
:105060005EF8046B364205D4012A43EB030515F5BF
:10507000001F12D8012841EB010C1CF5001F0CD8B1
:105080000ED14FEAD17C15F5001F0CEB4C0C0CF146
:10509000020C08BF4CEBD37C04E04FF0080C01E09D
:1050A0004FEAD37C0CEB4C0526FA05F606F0070612
:1050B000B6F1040C06D20EEB860CBDE870404CF045
:1050C000010C6047DFE80CF0090B02024FF00041D1
:1050D0004FF00000A1F5002170BD194610460128CF
:1050E00051EB010418BFD4F5001484BF002001F077
:1050F000004170BD0808A0F500114FEA310170476A
:1051000053EA010C17D41CF5801F58BFBCF5801F53
:1051100000F106808B4218BF704708BF824270477B
:1051200007D713F5801F58BF11F5801F19D48B4284
:1051300070479B4270471CF5801F08D5BCF5801F47
:10514000F7D5994218BF704708BF904270474FF497
:10515000001C1CEB430F38BF1CEB410F01D29942DE
:1051600070470FB40CBC03BCFFF7C1BE91EA030F3C
:1051700010B581F000413FF5C1AB83F0004300F072
:1051800009B8000010B591EA030F48BF83F000434F
:105190003FF5B4AB841A71EB030C07D212198CF0F3
:1051A000004C43EB0C03001B61EB0C01DFF8A4E1A6
:1051B0004FEA1154A4EB135C1EEA430F18BF9EEA9A
:1051C000445F00F0B08023EA6E03524221EA0451AA
:1051D000C3EB6E0338BF5B1EDCF1200E25D322FA31
:1051E0000CFE10EB0E0043FA0CFE41EB0E01CCF16D
:1051F000200E03FA0EFE10EB0E0051F10001CCF16F
:10520000200E29D412FA0EF201EB0451BDE8104031
:1052100058BF7047401C1CBFB2F1004F70470028B8
:105220000CBF491C20F00100704712EB020E43EB4B
:10523000030218BF4FF0010E4EEA4202ACF1200CFF
:10524000DCF11E0E54D943FA0CFE10EB0E0051F1A6
:10525000FF31CCF11E0ED5D50EF1010E12FA0EFE65
:10526000404141EB010101EB445C5FEA5C5C10D919
:1052700010EBDE7001EB045138BFBEF1004FBDE80A
:10528000104018BF704700280CBF491C20F00100D7
:10529000704730D24FEAD42C11F5001124F4006489
:1052A0001BD0B1FA81F20B3AA41AA41ED2F120034A
:1052B000914030FA03F31943904001EBCC71002C7C
:1052C00001EB0451BDE81040A8BF704701F1C04197
:1052D0004FF0000001F000417047B0FA80F310FA7F
:1052E00003F100D110BDE41A173C4805C90AE4E7F0
:1052F00001EB045110BD491001EB0451BDE8104011
:105300004FEA300002E04FF0000170474A0008BF4A
:105310000042F8D0B2F5001F28BF704701F00041ED
:105320004FF0000070479EEA445F07D011EA5E0F1D
:10533000BDE8104004BF002100207047BDE81040C8
:1053400070B5FFF789FE00BF40DFF63E83F00041F5
:10535000104670470000E0FF43004FEAD30C4FEACD
:105360003C0C43401FBF40070CF1605113F0FE4F4F
:1053700070471CF0006F03D100200CF00041704713
:105380000CF0004343EA507010B540EACC0000F046
:105390000EF800BF000000924FEA0001FFF7AABE1E
:1053A0004FF000414FF00000A1F5002170470EF1D1
:1053B000020E2EF0030E5EF8044B244204D44FEA92
:1053C0004102B2F17F4F11D84FEA4003B3F17F4F52
:1053D0000CD80ED14FEAD07CB2F17F4F0CEB4C0CC5
:1053E0000CF1020C08BF4CEBD17C04E04FF0080C30
:1053F00001E04FEAD17C0CEB4C0324FA03F404F0F7
:105400000704B4F1040C06D20EEB840CBDE8104086
:105410004CF0010C6047DFE80CF0070802024FF087
:105420000040A0F5800010BD0846420018BFD2F130
:10543000807288BF00F0004010BD4FF04070E1EE78
:10544000100A7047FF2141EAD050C00570470000A4
:1054500004FA97999999D93FAF788E1DC571CC3FC1
:105460009FC678D0099AC33F935555555555E53F8A
:10547000599322942449D23FDE03CB966446C73F1A
:1054800044523EDF12F1C23F000000000000000065
:10549000B05400080000002014010000C4010008FE
:1054A000C4550008140100202C070000E00100088A
:1054B000231B81439CC481431DBA8343AEE78643CB
:1054C00058298B43BA4990430000964321F09B43EF
:1054D000B8AEA143D5C8A643D9CEAA43F262AD4324
:1054E0006646AE43F262AD43D9CEAA43D5C8A643C1
:1054F000B8AEA14321F09B4300009643BA499043C4
:1055000058298B43AEE786431DBA83439CC481432D
:105510000000964300009643000096430000964327
:105520000000964300009643000096430000964317
:105530000000964300009643000096430000964307
:1055400000009643000096430000964300009643F7
:1055500000009643000096430000964300009643E7
:1055600000009643000096430000964300009643D7
:105570000000803F0000803F00000000DB0F49403A
:105580000000604046000000010101000001000031
:10559000007A030A0000000000000000010203047A
:1055A00006070809000000000000000000000000DD
:1055B00000000000000001020304010203040607CA
:0455C00008090000D6
:040000050800018965
:00000001FF
