:020000040800F2
:10000000700800205D380008A5260008A726000813
:10001000AB260008AF260008B32600080000000049
:10002000000000000000000000000000B7260008EB
:10003000B926000800000000BB260008BD26000805
:1000400077380008773800087738000877380008D4
:1000500077380008773800087738000877380008C4
:1000600077380008773800087738000877380008B4
:1000700077380008773800087738000877380008A4
:100080007738000877380008773800087738000894
:100090007738000877380008773800087738000884
:1000A0007738000877380008773800087738000874
:1000B0007738000877380008773800087738000864
:1000C0007738000877380008773800087738000854
:1000D00077380008D13700087738000877380008EB
:1000E0007738000877380008773800087738000834
:1000F0007738000877380008773800087738000824
:100100007738000877380008773800087738000813
:10011000773800087738000877380008DD350008A0
:1001200077380008773800087738000877380008F3
:1001300077380008773800087738000877380008E3
:1001400077380008773800087738000877380008D3
:1001500077380008773800087738000877380008C3
:1001600077380008773800087738000877380008B3
:1001700077380008773800087738000877380008A3
:10018000773800087738000800F002F800F05CF8D3
:100190000AA090E8000C82448344AAF10107DA45E2
:1001A00001D100F051F8AFF2090EBAE80F0013F0D8
:1001B000010F18BFFB1A43F001031847047D00002C
:1001C000247D00000A444FF0000C10F8013B13F0AE
:1001D000070408BF10F8014B1D1108BF10F8015BA0
:1001E000641E05D010F8016B641E01F8016BF9D193
:1001F00013F0080F1EBF10F8014BAD1C0C1B09D1EA
:100200006D1E58BF01F801CBFAD505E014F8016B5B
:1002100001F8016B6D1EF9D59142D6D370470000ED
:100220000023002400250026103A28BF78C1FBD8FF
:10023000520728BF30C148BF0B6070471FB507F099
:1002400082FD1FBD10B510BD05F07AFC1146FFF709
:10025000F5FF01F0F9FD05F098FC03B4FFF7F2FF9C
:1002600003BC03F051FA00002DED040B82B09DEDAC
:10027000020ADDED040A30EE200A8DED000A9DED44
:10028000030ADDED050A30EE200A8DED010A9DED31
:10029000000ADDED010A06B070472DED040B82B0B7
:1002A0009DED020ADDED040A30EE600A8DED000AD4
:1002B0009DED030ADDED050A30EE600A8DED010AC1
:1002C0009DED000ADDED010A06B070472DED040B2F
:1002D00082B09DED020A20EE010A8DED000A9DED2F
:1002E000030A20EE010A8DED010A9DED000ADDED05
:1002F000010A06B070472DED040B9DED000ADDEDFF
:10030000020A20EE200ADDED010A9DED031A00EE3F
:10031000810A04B070472DED040B9DED000ADDED60
:10032000030A20EE200ADDED020A9DED011A00EE1F
:10033000C10A04B0704710B52DED020B2DED048BF2
:10034000DDED051A9DED041ADDED050A9DED040AAB
:10035000FFF7D1FF10EE104A204607F083FC41EC76
:10036000190BB0EE490AF0EE690A06F04BF9B0EE4F
:10037000408AF0EE608A51EC180B06F0A3FD00EE07
:10038000100ABDEC048B1CBDF0EE400AF5EEC00A6D
:10039000F1EE10FA02D29FEDFE0A7047B7EE000AA6
:1003A000F4EEC00AF1EE10FA02DDB7EE000AF4E74F
:1003B000B0EE600AF1E72DE9F04104460E4615461D
:1003C000002700BF2DE02878012804D14FF4FA61FE
:1003D000F04804F0E2F86878012804D14FF4FA619B
:1003E000ED4804F0DAF8A04604EBD871C1F34F00F1
:1003F00003F06AF92878012803D10021E54804F0C8
:10040000CCF86878012803D10021E34804F0C5F84E
:10041000A04604EBD871C1F34F0003F055F9781CE6
:1004200007B2B742CFDBBDE8F0812DE9F0410446C9
:100430000D46002600BF20E04FF4FA61D54804F0D5
:10044000ACF80021D44804F0A8F8274604EBD77193
:10045000C1F34F0003F038F90021CE4804F09DF8B5
:100460004FF4FA61CC4804F098F804EBD771C1F36B
:100470004F0003F029F9701C06B2AE42DCDB00210C
:10048000C54804F08AF8274604EBD771C1F34F0042
:1004900003F01AF9BDE8F08100B52DED068B83B0AD
:1004A00000200190029001A802F012FFBDF9041093
:1004B000BA4AB2F90020881A07F077F841EC190B14
:1004C000BDF90610B54AB2F90220881A07F06DF896
:1004D00041EC1A0BB0EE491AF0EE691AB0EE4A0A76
:1004E000F0EE6A0A05F0E0FCB0EE408AF0EE608AB9
:1004F00051EC180B06F0E6FC00EE100A03B0BDEC60
:10050000068B00BD2DE9F34F9BB000210C460D4634
:10051000002006460746002218921992169217925A
:100520001492159212911391109211920E910F91B3
:100530000C910D9100BF00BF00BF05900390049087
:100540004FF47A71934804F028F800200590C9E030
:1005500003A802F0BDFEBDF90C00C117CDE90801EA
:10056000BDF90E00C117CDE90601DDE90801241827
:100570004D41DDE9060136184F41DDE90801A0FBD8
:1005800000C301FB003300FB0132DDE918011CEB65
:1005900000004A41CDE91802DDE90612DDE9080351
:1005A000A0FB01C803FB018102FB0012DDE916017B
:1005B0001CEB00005141CDE91601DDE90601A0FB6D
:1005C00000C301FB003300FB0132DDE914011CEB29
:1005D00000004A41CDE91402DDE90801A0FB00C397
:1005E00001FB003300FB0133ACFB002803FB008060
:1005F0000CFB01039446DDE912101CEB010143EBF7
:100600000002CDE91212DDE90801A0FB002301FB85
:10061000003300FB013C1346DDE90601A3FB002883
:100620000CFB008003FB01039446DDE910011CEB89
:10063000000043EB0102CDE91002DDE90721069835
:10064000A1FB00C8099B03FB008001FB0203DDE95D
:100650000601ACFB002803FB00800CFB0103944661
:10066000DDE90E011CEB000043EB0102CDE90E02B7
:10067000DDE90601A0FB002301FB003300FB013C88
:100680001346A3FB00280CFB008003FB01039446E8
:10069000DDE90C011CEB000043EB0102CDE90C028B
:1006A000DDF86C804FEAE87108EB9171C1F38F00BF
:1006B00003F00AF84FF4FA61374803F06EFF1B9914
:1006C00001EB41084FEAE87108EB9171C1F38F002B
:1006D00002F0FAFF0021304803F05FFF0598401C4C
:1006E00000B205901C9905988842FFF631AF0023AF
:1006F000204629461C9A05F070F904460D46002351
:10070000304639461C9A05F068F906460F46002324
:100710001C9ADDE9180105F060F9CDE91801002304
:100720001C9ADDE9160105F058F9CDE91601002300
:100730001C9ADDE9140105F050F9CDE914010023FC
:100740001C9ADDE9120105F048F9CDE912010023F8
:100750001C9ADDE9100105F040F9CDE910010023F4
:100760001C9ADDE90E0105F038F9CDE90E010023F0
:100770001C9ADDE90C0105F030F9CDE90C01A6FB6E
:1007800006C007FB060006FB0701DDE9142007E0B1
:100790000000000000440140004801400A01002020
:1007A000BCEB020261EB0000A4FB049305FB0433E5
:1007B00004FB0531DDE918C3B9EB0C0C61EB030157
:1007C0006346A2FB03C800FB038002FB0108A4FBF5
:1007D000069105FB061104FB0710DDE91623B9EBB2
:1007E000020160EB0300A1FB012300FB013301FBCD
:1007F0000030BCEB020168EB000802220023A1FBE1
:10080000020C08FB02C201FB0323CDE90A03DDE968
:100810001031DDE90C20D3184141DDE91802A6FBB7
:1008200000C807FB008006FB0202B3EB0C0361EB80
:100830000200DDE91421A6FB02C807FB028206FBC9
:100840000121B3EB0C0260EB0100A4FB069305FB56
:10085000063304FB0731DDE9163CB9EB030361EB1A
:100860000C0CA2FB031800FB038002FB0C02DDE969
:1008700012C0DDE90E831CEB08085841DDE9143C89
:10088000A4FB039A05FB03A304FB0C33B8EB090894
:1008900060EB0303DDE918C0A4FB0C9A05FB0CAC6C
:1008A00004FB00CC1846B8EB090360EB0C00A6FB78
:1008B00006A807FB068806FB078CDDE91498BAEB4F
:1008C00009096CEB080C9846A8FB093A00FB09A043
:1008D00008FB0C0CC91A62EB0C00CDE900100846AD
:1008E000DDE90A23019905F078F800B2FE49088095
:1008F000DDE90CC0DDE910121CEB010340EB020145
:10090000DDE91802A6FB00C807FB008006FB020019
:10091000B3EB0C0361EB0002DDE91410A6FB01C888
:1009200007FB018106FB00101146B3EB0C0261EBE3
:100930000001A4FB043005FB040004FB0509DDE90C
:100940001880B8EB030C60EB09001346A3FB0C28DE
:1009500001FB0C8103FB0013DDE912C1DDE90E0987
:100960001CEB000841EB0900DDE9149CA4FB091A0B
:1009700005FB09A904FB0C9CB8EB010860EB0C011A
:10098000DDE91890A4FB09CA05FB09A904FB00993D
:10099000B8EB0C0C61EB09002146B246A1FB0A9EA4
:1009A00005FB06E804FB078ADDE91681B8EB0908B8
:1009B00061EB0A018146ACFB080A09FB08A80CFBA5
:1009C0000181101A63EB0103CDE90003DDE90A237D
:1009D000019905F002F800B2C34948800021C348DC
:1009E00003F0DBFD1DB0BDE8F08F10B50446C4F583
:1009F000FA614FF0804003F0D0FDC4F5FA61BC48C5
:100A000003F0CFFDC4F5FA61B94803F0CCFDC4F59D
:100A1000FA61B84803F0C1FDC4F5FA61B54803F0C6
:100A2000BEFDC4F5FA61B34803F0BDFDC4F5FA613B
:100A3000B04803F0B6FDC4F5FA614FF0804003F012
:100A4000B0FDC4F5FA614FF0804003F0ACFDC4F591
:100A5000FA61A94803F0A1FDC4F5FA61A64803F0C4
:100A60009EFDC4F5FA61A44803F09BFDC4F5FA614C
:100A7000A14803F098FDC4F5FA61A04803F08DFD8C
:100A8000C4F5FA619D4803F08AFDC4F5FA619B48FC
:100A900003F087FDC4F5FA61984803F084FDC4F5BE
:100AA000FA614FF0804003F07AFDC4F5FA61904896
:100AB00003F073FDC4F5FA61914803F06EFDC4F5CF
:100AC000FA61904803F069FDC4F5FA618D4803F0BE
:100AD00066FDC4F5FA618B4803F063FDC4F5FA6165
:100AE000884803F060FD10BD10B504462078012849
:100AF00008D10421844803F045F81021824803F00E
:100B00003FF807E00421804803F03AF810217E48BE
:100B100003F038F86078012808D102217A4803F000
:100B200031F80821784803F02BF807E002217648D5
:100B300003F026F80821744803F024F810BD10B51E
:100B40000221714803F01EF808216F4803F01AF8DB
:100B500004216D4803F016F810216B4803F012F8D9
:100B600010BD10B52DED048BB0EE408A18EE100AC2
:100B700007F078F841EC190B9FED640B53EC102B48
:100B800006F078FE0CD29FED630ADFED630A00EEFB
:100B9000880ABDEEC00A10EE100ABDEC048B10BD31
:100BA0000120FAE730B52DED108B83B0F0EE408ACE
:100BB000B0EE60FAB0EE418A38EECF0AC0EE080A15
:100BC00010EE905A284607F04DF841EC1A0B9FEDB5
:100BD0004F0B53EC102B06F0A7F941EC190B06F064
:100BE00071F9044618EE100A07F03CF841EC190BB5
:100BF000204607F037F841EC1E0BB0EE4E0AF0EE3F
:100C00006E0A05F055FAB0EE40CAF0EE60CA204612
:100C100007F028F841EC1D0B53EC1C2B06F038FFB5
:100C200041EC1B0B9FED390B53EC102B06F030FF02
:100C300041EC1A0B53EC192B06F01EFDCDE9000117
:100C40009DED000B51EC100B06F03CF900EE100A84
:100C500003B0BDEC108B30BD2DE9F0472DED020B3C
:100C60002DED0A8B40F6C41528264FF00008002011
:100C7000FFF7BBFE4FF4FA7002F026FD05EB85018D
:100C8000880044F2A01102F07DFC01202349087085
:100C90009DED0A0A10EE101A084606F0E3FF41EC3B
:100CA0001B0B9DED0B0A10EE101A084606F0DAFF3A
:100CB00041EC1C0BB0EE4B1AF0EE6B1AB0EE4C0A86
:100CC000F0EE6C0A05F0F0F8B0EE40AAF0EE60AA83
:100CD00051EC1A0B06F0F6F809EE900AFFF7DCFB70
:100CE000B0EE40AA1CE000000A01002000440140D0
:100CF00000040040000001400008004000040140E2
:100D000000400140000C0040000C024000000000C8
:100D10000000E03F00001CC20000A64224010020A9
:100D20009FEDFA1AF0EE690AFFF73CFFB0EE409A29
:100D3000002719EE100A06F095FF41EC1B0BB0EEF0
:100D40004B0AF0EE6B0A05F0A7F9B0EE40AAF0EE00
:100D500060AA9FEDEF0B53EC102B51EC1A0B06F031
:100D60004FFC00D201279FEDEC1ADFEDEC0AB0EE4C
:100D7000490AFFF717FFB0EE409AB5EEC09AF1EEC0
:100D800010FA03DDE648FFF7AFFE02E0E548FFF7A3
:100D9000ABFEFFF781FBB0EE40AA9FEDDC1AF0EE50
:100DA000690AFFF7FFFEB0EE408AB0EE480AF0EEA7
:100DB000408A0DE0F0EE488AFFF76EFBB0EE40AAE5
:100DC0009FEDD21AF0EE690AFFF7ECFEB0EE408A12
:100DD00028EE280AB5EEC00AF1EE10FAEADCFFF7B9
:100DE000AEFE962002F070FC1FB1CF48FFF77CFEEC
:100DF00002E0CE48FFF778FEDDED0B0A9DED0A0A12
:100E0000FFF799FAB0EE40AAFFF7ABFE1FFA80F9A0
:100E1000484602F059FCFFF792FE4FF47A710A201F
:100E200002F060F9304484B204E064210A2002F048
:100E300059F98046A04503DABD4800780028F4D16E
:100E40004FF47A70FFF7D1FDBA4A03214FF4FA70DC
:100E5000FFF7B1FA0020FFF7C8FDBDEC0A8BBDE833
:100E6000FC872DE9F04180460D46164600240027F8
:100E7000B04A03214FF4FA70FFF79DFA4FF47A71EC
:100E8000AD4803F08AFB14E01021AC4802F05EFE8E
:100E900020B9601C84B2AC4208DB0BE00CB1781CBA
:100EA00087B2B74202DD002004460746404602F002
:100EB0000BFCE9E700BFA24A03214FF4FA70FFF7E9
:100EC0007AFABDE8F081F3B52DED020B2DED0A8B1A
:100ED00085B006460F4600259DED0F0ADFED990A05
:100EE00020EE200A10EE101A084606F0BBFE41EC78
:100EF0001C0BB0EE4C0AF0EE6C0A05F0D9F8B0EE1F
:100F000040BAF0EE60BA9FED900B53EC102B51EC11
:100F10001B0B06F059F941EC1A0B9FED8D0B53ECAE
:100F2000102B06F001F841EC190B05F0CBFF08EE91
:100F3000100A9DED100ADFED830A20EE200A10EE64
:100F4000101A084606F08EFE41EC1C0BB0EE4C0A5F
:100F5000F0EE6C0A05F0ACF8B0EE40BAF0EE60BA14
:100F60009FED790B53EC102B51EC1B0B06F02CF979
:100F700041EC1A0B9FED760B53EC102B05F0D4FFD0
:100F800041EC190B05F09EFF08EE900A002003903B
:100F9000049001900290002450E006EB041103C974
:100FA000CDE9030106EB0411D1E90201CDE901010C
:100FB0009DED030ADDED010AB4EE600AF1EE10FAD0
:100FC0003AD09DED030AB4EEC80AF1EE10FA06D24B
:100FD0009DED010AB4EEC80AF1EE10FA0DDC9DEDAC
:100FE000030AB4EEC80AF1EE10FA25DD9DED010A00
:100FF000B4EEC80AF1EE10FA1ED29DED040ADDED42
:10100000010A70EEC80A20EE200ADDED020A9DED0D
:10101000031A38EE411A00EE810ADDED010A9DED5A
:10102000031A30EEC11AC0EE010AF4EEE80AF1EE3E
:1010300010FA01DD681C05B2601C04B2BC42ACDBD6
:10104000284605EBD0714910A5EB410131B14FF0B5
:10105000FF3005B0BDEC0A8B04B0F0BD0120F8E70D
:1010600000B52DED060B92B0DDE91201CDE91001BE
:10107000DDE91401CDE90E019FED280AB0EE402A0A
:101080009FED260AF0EE402ADDED111A9DED101AB3
:10109000DDED0F0A9DED0E0AFFF7FFF88DED0C0A4E
:1010A000CDED0D0ADDED111A9DED101ADDED170ADB
:1010B0009DED160AFFF7F1F88DED0A0ACDED0B0A4A
:1010C000DDED0D1A9DED0C1ADDED0B0A9DED0A0A02
:1010D000FFF711F9B0EE402AB5EEC00AF1EE10FAB2
:1010E0003AD8DDED171A9DED161ADDED110A9DEDCA
:1010F000100AFFF7D2F88DED0C0ACDED0D0A9DED2B
:101100000C0ADDED0D0A18B000BD0000DB0FC94070
:1011100044174154FB21F93FDB0F49400000000018
:101120000601002008010020020100200401002027
:101130002401002000010020004801400008024076
:10114000FC00002000401C46000000000088C34056
:101150002D431CEBE2360A3FDDED0F1A9DED0E1A12
:10116000DDED110A9DED100AFFF797F88DED0A0AE3
:10117000CDED0B0ADDED0F1A9DED0E1ADDED170A10
:101180009DED160AFFF789F88DED080ACDED090AE5
:10119000DDED0B1A9DED0A1ADDED090A9DED080A39
:1011A000FFF7A9F8F0EE402AB5EEC00AF1EE10FA0A
:1011B00013D8DDED171A9DED161ADDED0F0A9DED22
:1011C0000E0AFFF76AF88DED0A0ACDED0B0A9DEDC8
:1011D0000A0ADDED0B0A18B000BD32EE220AF7EE66
:1011E000000A80EE801AB0EE413AB0EE621ADDEDF0
:1011F000110A9DED100AFFF769F88DED080ACDED93
:10120000090AB0EE421ADDED0F0A9DED0E0AFFF756
:101210005DF88DED060ACDED070ADDED091A9DEDAD
:10122000081ADDED070A9DED060AFFF71DF88DEDA2
:10123000040ACDED050AB0EE431ADDED050A9DED79
:10124000040AFFF743F88DED020ACDED030ADDED48
:10125000171A9DED161ADDED030A9DED020AFFF740
:101260001CF88DED000ACDED010A9DED000ADDEDC3
:10127000010AB0E773B52DED020B2DED028B84B0A2
:1012800004460E460025DDED072A9DED062AD4ED25
:10129000031A94ED021AD4ED010A94ED000AFFF747
:1012A000DFFE8DED020ACDED030A002000900190D3
:1012B000DDED030A9DED020AFFF73DF8F0EE408AEE
:1012C0001FED6A0AB0EE408A012528E004EB051004
:1012D000DDED072A9DED062AD0ED031A90ED021AE6
:1012E000D0ED010A90ED000AFFF7BAFE8DED000A7D
:1012F000CDED010ADDED010A9DED000AFFF71BF8B7
:10130000B0EE408AB4EEE88AF1EE10FA05D2F0EEC3
:10131000488ADDE90001CDE90201681C05B2B54249
:10132000D4DB9DED020ADDED030A04B0BDEC028BB7
:101330007FBDF3B52DED020B2DED108B89B0054669
:101340000E46DDED1A0A9DED190A31462846FFF7D3
:10135000BAFD0446DDED1A0A9DED190A314628460C
:10136000FFF788FF8DED060ACDED070ADDED070AD0
:101370009DED060AFEF7DFFFB0EE408A18EE100A78
:1013800006F070FC41EC1C0B9FEDFE0B53EC102B98
:1013900005F0CAFD41EC1A0B204606F006F941ECB7
:1013A0001C0B00EE104AB8EEC00A28EE000AF748FF
:1013B000D0ED000A80EE201A11EE107A384606F0C1
:1013C00051FCCDE900019DED000B05F059F9B0EE9F
:1013D00040FAF0EE60FA9FEDEE0B53EC102B51EC5F
:1013E0001F0B05F0A1FDCDE90201EB48006806F0F6
:1013F00039FC41EC1E0B9DED020B53EC102B06F05B
:101400003BF941EC1D0B53EC1C2B06F035F941EC7C
:101410001B0B53EC1A2B05F0D7FE41EC190B05F012
:1014200051FD08EE900AB0EE681ADDED070A9DED59
:10143000060AFEF74BFF8DED040ACDED050A9DED82
:10144000040ADDED050A09B0BDEC108BFFBD70B5D7
:101450002DED108B88B005460C46281B00EE100AB7
:10146000F8EEC00A281900EE100AB8EEC00A80EEA5
:10147000801A11EE106A304606F0F4FB41EC180BAE
:10148000C648006806F0EEFBCDE90001204606F0F4
:101490008CF841EC1E0B284606F087F841EC1F0B38
:1014A000B0EE4E1AF0EE6E1AB0EE4F0AF0EE6F0A82
:1014B00004F08AFEB0EE40DAF0EE60DA9DED000B4B
:1014C00053EC102B51EC1D0B06F0E2FACDE90401B0
:1014D000B348006806F0C6FBCDE902019DED040BA0
:1014E00053EC102B9DED020B51EC100B06F0C4F8E1
:1014F00041EC1C0BB0EE4C0AF0EE6C0A05F0C0F8A3
:10150000B0EE40AAF0EE60AAA648006806F0AAFB7A
:1015100041EC1B0B53EC1A2B06F0AEF841EC190B07
:1015200053EC182B06F0A8F8CDE906019DED060B4B
:1015300051EC100B05F0C6FC00EE100A08B0BDEC33
:10154000108B70BD10B52DED0A8B82B0B0EE408AC5
:10155000002000900190944890ED000AD0ED010A1F
:1015600080EE201A11EE104A204606F07BFB41EC7B
:101570001C0BB0EE4C0AF0EE6C0A04F061FEB0EE0B
:1015800040AAF0EE60AA18EE100A06F06BFB41ECE0
:101590001B0B53EC1A2B06F06FF841EC190B05F0FE
:1015A00091FC0090804890ED020AD0ED030A80EE95
:1015B000201A11EE104A204606F054FB41EC1C0B99
:1015C000B0EE4C0AF0EE6C0A04F03AFEB0EE40AA1F
:1015D000F0EE60AA18EE100A06F044FB41EC1B0B7B
:1015E00053EC1A2B06F048F841EC190B05F06AFC95
:1015F00001909DED000ADDED010A02B0BDEC0A8B01
:1016000010BDF0B52DED0C8B8DB00646F0EE408A86
:10161000B0EE609A0D4619EE100A06F023FB41EC7D
:101620001D0B9FED620B53EC102B05F0CDFD41EC33
:101630001C0B9FED600B53EC102B06F01DF841ECDA
:101640001B0B05F03FFC08EE100A18EE100A06F01E
:1016500009FB41EC1C0BB0EE4C0AF0EE6C0A04F0F6
:1016600027FDB0EE40BAF0EE60BA51EC1B0B05F06E
:101670003FFF00B200EE100AB8EEC00AF0EE409A4A
:10168000F7EE000A30EE200AB0EE40AA002431E066
:10169000BDEEE90A10EE100A00B2201A60301821DF
:1016A00090FBF1F201FB120006EB800090ED000AC6
:1016B0007AEE480A20EE200AFDEECA0A10EE900AE1
:1016C00000B2201A603090FBF1F201FB120006EB31
:1016D0008000D0ED000A38EE691A00EE810A20EE93
:1016E000280ABCEEC00A10EE100A01A921F8140065
:1016F000601C84B2182CCBDBBDF80400C0F5FA6185
:101700004FF0804002F049FFBDF80600C0F5FA61D5
:101710002A4802F046FFBDF80800C0F5FA612748E4
:1017200002F041FFBDF80A00C0F5FA61244802F05A
:1017300034FFBDF80C00C0F5FA61214802F02FFF1C
:10174000BDF80E00C0F5FA611D4802F02CFFBDF88F
:101750001000C0F5FA611A4802F023FFBDF812002C
:10176000C0F5FA614FF0804002F01BFFBDF8140095
:10177000C0F5FA614FF0804002F015FFBDF8160089
:1017800020E000002D431CEBE2361A3FE40000206D
:10179000000000000000F03FE0000020F00000200A
:1017A000EC000020E8000020C00000204417415455
:1017B000FB21094000000000000028400004004018
:1017C00000000140C0F5FA61F94802F0E6FEBDF8FC
:1017D0001800C0F5FA61F64802F0E1FEBDF81A0003
:1017E000C0F5FA61F24802F0DCFEBDF81C00C0F55D
:1017F000FA61EF4802F0D7FEBDF81E00C0F5FA61AD
:10180000EC4802F0CAFEBDF82000C0F5FA61E948D4
:1018100002F0C5FEBDF82200C0F5FA61E54802F00D
:10182000C0FEBDF82400C0F5FA61E24802F0BBFE3C
:10183000BDF82600C0F5FA614FF0804002F0AFFE1F
:10184000BDF82800C0F5FA61DB4802F0A6FEBDF83D
:101850002A00C0F5FA61D94802F09FFEBDF82C00BD
:10186000C0F5FA61D64802F098FEBDF82E00C0F52A
:10187000FA61D34802F093FEBDF83000C0F5FA617A
:10188000CF4802F08EFEBDF83200C0F5FA61CC48B8
:1018900002F089FE2F4605EBD771C1F34F0001F02E
:1018A00013FF4FF47A710A2001F01CFC044605EB8B
:1018B000D771C1F34F0001F007FF20460DB0BDEC1A
:1018C0000C8BF0BD2DE9F04104460D460020FFF7DA
:1018D0008CF8204601F0F8FE00264FF47A710A20B9
:1018E00001F000FC284487B204EB8401480042F276
:1018F000D00101F047FE0120B249087004E06421E4
:101900000A2001F0EFFB0646BE4203DAAD4800783C
:101910000028F4D14FF47A70FFF767F8322C03DA1D
:10192000322001F0D1FE02E0204601F0CDFE002081
:10193000FFF75BF8BDE8F0812DE9F04F2DED108B3E
:1019400089B005460F4691461E46B0EE408A4FF0DC
:10195000000AD346D0460024002007900890039048
:101960000490059006909FED980AF0EE408A019051
:10197000029000BFC2E04946DFED930A9FED920A54
:101980003846FFF73EFE8246FEF786FDF0EE408ABF
:10199000002430E08D4800EB840090ED000A30EE2A
:1019A000280A10EE101A084606F05CF941EC1B0BF1
:1019B0001FED820B53EC102B05F0B6FA41EC1A0B1D
:1019C00005F080FA09EE100A4946F0EE490AB7EE32
:1019D000000A3846FFF715FEA0EB0A0080B207A9FF
:1019E00021F8140003A951F82410084403A941F870
:1019F0002400601C84B2042CCCDB4FF0000872E0A1
:101A000000246AE0714800EB840090ED001A31EE8A
:101A1000281AF0EE410A05EB840090ED001AB0EEB2
:101A2000410A49463846FFF7ECFDA0EB0A0000EEFC
:101A3000100AB8EEC00A20EE080A8DED000A0098E0
:101A400006F010F941EC1C0B9FED610B53EC102BD1
:101A500005F0BAFB41EC1A0B07A830F8140000EEB1
:101A6000100AB8EE400A20EE080A10EE101A0846D6
:101A700006F0F8F841EC1E0B9FED550B53EC102BC4
:101A800005F0A2FB41EC1D0B1FEDBF0B53EC102B1F
:101A900005F026FF41EC1C0B05F014FA0FEE100ABE
:101AA000B0EE4F0AFEF770FC05EB8400D0ED000AA3
:101AB00020EE200A8DED000A009806F0D3F841ECE4
:101AC0001B0B53EC1A2B05F02FFA41EC190B05F008
:101AD000F9F945F82400601C84B2042C92DB08F16B
:101AE00001001FFA80F82298804589DB28210A200E
:101AF000FFF7E8FE0BF101001FFA80FBB345FFF68C
:101B00003AAF002409E003A850F82400B0FBF6F037
:101B100003A941F82400601C84B2042CF3DBDDE946
:101B20000310FFF794FC8DED010ADDE90510FFF7C6
:101B30008EFC8DED020A28210A20FFF7C3FE9DEDE1
:101B4000010ADDED020A09B0BDEC108BBDE8F08F93
:101B50002DE9F04F2DED108B8BB006460F469046C9
:101B6000B0EE408A4FF00009CA46002400200590DC
:101B70000690194BD3E90012D3E90203CDE9030320
:101B8000CDE901129FED100AF0EE408A00250BE02E
:101B9000124800EB850090ED000A07A800EB8500D5
:101BA00080ED000A681C85B2042DF1DB002510E1F0
:101BB00000080040000401400004004000400140D3
:101BC000000C00402401002000000000D000002094
:101BD00000000000000059405C7D0008C0000020AB
:101BE00031465FED070A1FED080AFE48FFF709FDC1
:101BF0008146FEF751FCF0EE408A002466E0FA4888
:101C000000EB840090ED000A30EE280A10EE101A66
:101C1000084606F027F841EC1B0B9FEDF40B53EC44
:101C2000102B05F081F941EC1A0B05F04BF909EE88
:101C3000100A3146F0EE490AB7EE000AE948FFF70C
:101C4000E0FCA0EB090005A921F8140005A830F874
:101C50001400E8490968884236DD05A830F8140008
:101C6000E44A1268801A00EE100AB8EEC00A20EEAC
:101C7000080A10EE101A084605F0F4FF41EC1C0BA0
:101C80001FED2D0B53EC102B05F09EFA41EC1B0BB6
:101C90009FEDD90B53EC102B05F022FE41EC1A0BF3
:101CA00005F010F909EE100AB0EE490AFEF76CFBD8
:101CB00001A800EB8400D0ED000A20EE200A01A864
:101CC00000EB840080ED000A601C84B2042C96DBDB
:101CD0004FF0000A75E000246DE0C34800EB84007B
:101CE00090ED001A31EE281AF0EE410A07A800EB39
:101CF000840090ED001AB0EE410A3146B948FFF772
:101D000080FCA0EB090000EE100AB8EEC00A20EE3D
:101D1000080A10EE10BA584605F0A4FF41EC1C0B5F
:101D20001FED550B53EC102B05F04EFA41EC1A0B3E
:101D300005A830F8140000EE100AB8EE400A20EEB4
:101D4000080A10EE101A084605F08CFF41EC1E0B35
:101D50001FED610B53EC102B05F036FA41EC1D0B17
:101D60009FEDA50B53EC102B05F0BAFD41EC1C0BBD
:101D700005F0A8F80FEE100AB0EE4F0AFEF704FBCC
:101D800007A800EB8400D0ED000A20EE200A10EE38
:101D900010BA584605F066FF41EC1B0B53EC1A2BAA
:101DA00005F0C2F841EC190B05F08CF807A941F8D1
:101DB0002400601C84B2042C8FDB0AF101001FFA9E
:101DC00080FAC24587DB28210A20FFF77BFD681CCB
:101DD00085B2BD42FFF604AF00252EE007A800EB58
:101DE000850090ED000AF7EE000A30EE600A01A8C7
:101DF00000EB8500D0ED000AB7EE001A71EE600A24
:101E000060EE200A01A800EB850090ED000AB7EE15
:101E1000001A31EE401AB7EE000A00EE810A784847
:101E200000EB8500D0ED000A80EE801A744800EBCC
:101E3000850080ED001A681C85B2042DCEDB0BB046
:101E4000BDEC108BBDE8F08F70B52DED0E8BE8B0BA
:101E50004FF4A06001F022FDA82001F0D3FB4FF465
:101E6000E13001F05FFC674803C8CDE93E016549F8
:101E7000083103C9CDE93C016249103103C9CDE9FC
:101E80003A016049183103C9CDE938015D49203173
:101E900003C9CDE936015B49283103C9CDE93401D5
:101EA0005849303103C9CDE932015649383103C9A7
:101EB000CDE930015349403103C9CDE92E015149E3
:101EC000483103C9CDE92C01DDE93E0165916490FB
:101ED000DDE938016791669064A80FC808AC0FC4AB
:101EE000DDE9380161916090DDE93A01639162902A
:101EF00060A80FC80CAC0FC4DDE93A015D915C909D
:101F0000DDE93C015F915E905CA80FC810AC0FC486
:101F1000DDE93C0159915890DDE93E015B915A9011
:101F200058A80FC814AC0FC4DDE92E015591549088
:101F3000DDE92C015791569054A80FC818AC0FC476
:101F4000DDE92C0151915090DDE936015391529019
:101F500050A80FC81CAC0FC4DDE936014D914C9060
:101F6000DDE934014F914E904CA80FC820AC0FC44E
:101F7000DDE9340149914890DDE932014B914A9005
:101F800048A80FC824AC0FC4DDE932014591449044
:101F9000DDE930014791469044A80FC828AC0FC432
:101FA000DDE9300141914090DDE92E0143914290FD
:101FB00040A80FC80925002401F040F801F0AEF850
:101FC00001F0BAF901F059F900F082FC022140F267
:101FD000CF7000F0B1FC0020FEF707FD4FF4FA705F
:101FE00012E0000060000020D0000020441741549F
:101FF000FB210940F8000020000000000000F03F35
:10200000C00000206C7D000801F05EFBF84A03214F
:102010004FF4FA70FEF7CFF94FF4FA7001F054FB69
:10202000032232210A20FEF71CFFF24A04214FF45A
:10203000FA70FEF7C0F9282140F6C410FFF742FC01
:10204000EC4A04214FF4FA70FEF7B5F9EA48FEF7BE
:102050004BFD32216420FEF755FAFEF770FD4FF478
:102060007A7001F031FB032232210A20FEF7F9FEDB
:102070004FF47A7001F028FB2821C820FFF722FCDA
:102080000124E7E202214FF49670FEF7CEF90A2010
:102090009FEDDA0A05230822D9490090D948FFF7B5
:1020A0004BFC8DED060ACDED070A204604EBD071FE
:1020B0004910A4EB410129BBD34A02214FF4967089
:1020C000FEF779F99FEDD10A142211460820FFF797
:1020D0003FFDCC4890ED000A10EE101A084605F0BE
:1020E000C1FD41EC190B9FEDCA0B53EC102B05F011
:1020F000C3FA41EC180B05F02BFA86B231460020EA
:1021000003F0D8FB204604EBD0714910A4EB410149
:1021100000297DD1C048D0ED000A9FEDC01A60EEC5
:10212000810AB0EE600AFFF70DFA8DED040ACDEDDD
:10213000050AAF4A02214FF49670FEF73CF99DED77
:10214000040ADFEDB70AB4EEE00AF1EE10FA06D2A7
:10215000AD4A04214FF4FA70FEF72DF932E09DEDFF
:10216000040ADFEDB00AB4EEE00AF1EE10FA06DD83
:10217000A04A04214FF4FA70FEF71DF922E04FF453
:102180007A71A94802F009FA9DED040ADFEDA50A6B
:1021900030EE200ABCEEC00A10EE101A88B201F030
:1021A00093FA0021A04802F0F8F99DED040ADFED52
:1021B0009D0A30EEC00ABCEEC00A10EE101A88B2BA
:1021C00001F082FA8A4A02214FF49670FEF7F3F882
:1021D0009DED050ADFED920AB4EEE00AF1EE10FA89
:1021E00006D2894A04214FF4FA70FEF7E4F833E08E
:1021F0009DED050ADFED8B0AB4EEE00AF1EE10FA70
:1022000007DD7C4A04214FF4FA70FEF7D4F823E08E
:1022100099E14FF47A71854802F0BFF99DED050A06
:10222000DFED800A30EE200ABCEEC00A10EE101A74
:1022300088B201F049FA00217C4802F0AEF99DED28
:10224000050ADFED780A30EEC00ABCEEC00A10EED7
:10225000101A88B201F038FA654A02214FF49670DC
:10226000FEF7A9F89DED040ADFED6D0AB4EEE00A71
:10227000F1EE10FA06D2644A04214FF4FA70FEF728
:102280009AF88EE09DED040ADFED660AB4EEE00AEE
:10229000F1EE10FA06DD574A04214FF4FA70FEF70A
:1022A0008AF87EE04FF47A715F4802F076F99DED8E
:1022B000040A10EE101A084605F0D4FC41EC1D0B80
:1022C000B0EE4D0AF0EE6D0A03F0E6FEB0EE40CA45
:1022D000F0EE60CA9FED560B53EC102B51EC1C0B2B
:1022E00005F0CAF941EC1B0BB0EE4B0AF0EE6B0A9D
:1022F00004F088F9B0EE40AAF0EE60AA9FED4E0B14
:1023000053EC102B51EC1A0B05F0B6F941EC190BFC
:102310009FED4B0B53EC102B05F0E2FA41EC180B40
:1023200005F016F986B2304601F0CEF900213E489C
:1023300002F033F99DED040A10EE101A084605F07C
:1023400091FC41EC1C0BB0EE4C0AF0EE6C0A03F071
:10235000A3FEB0EE40BAF0EE60BA9FED350B53EC41
:10236000102B51EC1B0B05F087F941EC1A0BB0EE6A
:102370004A0AF0EE6A0A04F045F9B0EE409AF0EE2F
:10238000609A9FED2D0B53EC102B51EC190B05F0BF
:1023900073F941EC180B05F0DBF886B2304601F01A
:1023A00093F9134A02214FF49670FEF704F89DED5D
:1023B000050ADFED1B0AB4EEE00AF1EE10FA06D2D0
:1023C000114A04214FF4FA70FDF7F5FFBBE09DEDD3
:1023D000050ADFED140AB4EEE00AF1EE10FA33DD7F
:1023E000044A04214FF4FA70FDF7E5FFABE000006A
:1023F000FC000020FE000020060100200AD7233C3C
:1024000000000020C0000020000100200AD7A33CEB
:1024100065934D36D9649340F40000200000C84213
:1024200000007AC400007A440044014000480140A2
:102430000000000000408F4000000000000000404D
:102440000000000000409F404FF47A718D4802F078
:10245000A4F89DED050A10EE101A084605F002FCDE
:1024600041EC1D0BB0EE4D0AF0EE6D0A03F014FEC8
:10247000B0EE40CAF0EE60CA1FED130B53EC102B08
:1024800051EC1C0B05F0F8F841EC1B0BB0EE4B0ABD
:10249000F0EE6B0A04F0B6F8B0EE40AAF0EE60AAD7
:1024A0001FED1B0B53EC102B51EC1A0B05F0E4F84D
:1024B00041EC190B1FED1E0B53EC102B05F010FA1D
:1024C00041EC180B05F044F886B2304601F0FCF8F8
:1024D00000216C4802F061F89DED050A10EE101A1B
:1024E000084605F0BFFB41EC1C0BB0EE4C0AF0EEC9
:1024F0006C0A03F0D1FDB0EE40BAF0EE60BA1FED09
:10250000340B53EC102B51EC1B0B05F0B5F841ECE0
:102510001A0BB0EE4A0AF0EE6A0A04F073F8B0EE55
:10252000409AF0EE609A1FED3C0B53EC102B51ECEF
:10253000190B05F0A1F841EC180B05F009F886B26B
:10254000304601F0C1F8082C7EDD204604EBD07146
:102550004910A4EB4101E9BB4B4890ED000AFEF79E
:10256000F1FF8DED020ACDED030AA9B2DDED030AFC
:102570009DED020A08A8FEF7DCFE8DED000ACDED08
:10258000010ADDED071A9DED061ADDED010A9DED4C
:10259000000AFDF769FE8DED040ACDED050ADDEDBB
:1025A000050A9DED040AFDF7C6FE10EE106A3046DE
:1025B00005F058FB41EC1A0BDDED050A9DED040A10
:1025C000FDF7B9FE10EE106A304605F04BFB41EC0A
:1025D0001E0B00E038E09FED2D0B53EC102B04F0A8
:1025E000F3FD41EC1D0BB0EE4D0AF0EE6D0A04F068
:1025F00047F8B0EE40CAF0EE60CA9FED260B53ECF0
:10260000102B51EC1C0B05F037F841EC1B0B53EC75
:102610001A2B04F0D9FD41EC190B04F053FC08EE21
:10262000100AB0EE481ADDED050A9DED040AFDF72B
:102630004DFE8DED040ACDED050ADDED050A9DED9B
:10264000040AFEF709FB03E028213220FFF73AF9DC
:10265000601C84B2B4F57A7F7FF714AD0020FEF7DA
:10266000C4F90E4A14214FF4FA70FDF7A4FE4FF49A
:10267000C8710B4801F091FF002068B0BDEC0E8BD3
:1026800070BD000000480140F40000200000000080
:10269000000024400000000000001E40FE0000205A
:1026A00000440140704700BFFEE700BFFEE700BFE7
:1026B000FEE700BFFEE770477047704770470000B5
:1026C0000CB50020019000907648006840F48030FE
:1026D0007449086000BF7348006800F4003000903F
:1026E0000198401C0190009818B90198B0F5A04FCE
:1026F000F1D16C48006800F4003010B10120009066
:1027000001E0002000900098012846D16548403043
:10271000006840F0805063494031086062480068BA
:1027200040F44040604908605E48083000685D49F8
:10273000083108600846006840F400400860084618
:10274000006840F4A05008605848091F0860081F3E
:10275000006840F08070091F086000BF51480068A1
:1027600000F000700028F9D040F205705049086070
:102770004C480830006820F003004A4908310860DE
:102780000846006840F00200086000BF4548083075
:10279000006800F00C000828F8D10CBD10B54548C1
:1027A000006840F47000434908603E48006840F00B
:1027B00001003C49086000203A4908310860394866
:1027C00000683D490840374908603C48091D0860D9
:1027D000081F006820F48020091F0860002031498C
:1027E0000C310860FFF76CFF4FF000603149803911
:1027F000086010BD70B500200022022300240221D1
:10280000284D08352D6805F00C0020B1042806D0AD
:10281000082834D107E02A4D2A4E356033E02A4D8E
:10282000284E35602FE01F4D2D1D2D68C5F38054B7
:102830001C4D2D1D2D6805F03F0154B1224DB5FBF7
:10284000F1F5184E361D3668C6F3881605FB06F2FC
:1028500009E01B4DB5FBF1F5124E361D3668C6F387
:10286000881605FB06F20F4D2D1D2D68C5F3014599
:102870006D1C6B00B2FBF3F5124E356003E0104D9A
:10288000104E356000BF00BF064D08352D68C5F3FA
:1028900003150E4E705D0B4D2D68C540094E356019
:1028A00070BD00000038024000700040085440072E
:1028B000003C024088ED00E0FFFFF6FE10300024EF
:1028C0000024F4001001002000127A0014010020FE
:1028D0001CB50121042002F0F1FB10200090002023
:1028E0008DF8040003208DF8050001208DF8070005
:1028F00069460F4801F0C8F80121082002F0DEFB0C
:102900001E20009001208DF8040000208DF80600A4
:1029100003208DF8050001208DF807006946054861
:1029200001F0B2F81E21034801F02CF91CBD000093
:1029300000080240000C024030B58BB004460D4642
:102940000121084602F0BAFB0121022002F0B6FB89
:102950000121042002F0B2FB0121082002F0AEFBAD
:102960000121102002F0AAFB02208DF8280003208C
:102970008DF8290000208DF82A0001208DF82B0009
:10298000EF20099009A9FE4801F07EF84CF61B7073
:10299000099009A9FB4801F077F84FF4707009908D
:1029A00009A9F94801F070F84FF47040099009A99D
:1029B000F64801F069F846F66020099009A9F44844
:1029C00001F062F80121080202F0C1FB092207218F
:1029D000EB4801F0E4F80121802002F0B8FB092265
:1029E0000621E74801F0DBF80121402002F0AFFBAF
:1029F00009220E21E34801F0D2F809220F21E14813
:102A000001F0CDF80121880402F0B2FB0322092174
:102A1000DC4801F0C4F80121480402F0A9FB0322BC
:102A20000821D84801F0BBF80121080402F0A0FBFE
:102A300003220521D64801F0B2F803220621D4482A
:102A400001F0ADF80121022002F092FB03220621E1
:102A5000CD4801F0A4F803220721CB4801F09FF8EC
:102A600003220821C84801F09AF803220921C64828
:102A700001F095F80121082002F069FB02220021F3
:102A8000BF4801F08CF802220121BD4801F087F80F
:102A900002221146BA4801F082F802220321B84806
:102AA00001F07DF80121082002F051FB02220021F3
:102AB000B34801F074F802220121B14801F06FF827
:102AC00002221146AE4801F06AF802220321AC4806
:102AD00001F065F80121042002F039FB02220C21EB
:102AE000AA4801F05CF802220D21A84801F057F82D
:102AF00002220E21A54801F052F802220F21A3481C
:102B000001F04DF80121022002F021FB02220021F8
:102B10009C4801F044F8022201219A4801F03FF854
:102B200002220421974801F03AF80121084602F0F8
:102B30000EFB01220521924801F031F80122032108
:102B4000904801F02CF801220A218E4801F027F864
:102B500001220B218B4801F022F80121084602F0E6
:102B600007FB012209218A4801F019F801220B21F3
:102B7000874801F014F801220D21854801F00FF873
:102B800001220E21824801F00AF8A8B2ADF818001F
:102B90000020ADF81A000794ADF8200006A97D4882
:102BA00001F00DFB06A97C4801F009FB06A97B4852
:102BB00001F005FB06A97A4801F001FB06A9794856
:102BC00001F0FDFA06A9784801F0F9FA06A977485C
:102BD00001F0F5FA06A9764801F0F1FA06A9754860
:102BE00001F0EDFA06A9744801F0E9FA06A94FF0E0
:102BF000804001F0E4FA06A9704801F0E0FA602094
:102C0000ADF804000120ADF806000220ADF8100078
:102C100001A9604801F068FB08215E4801F0F1FC61
:102C200001A95D4801F060FB08215B4801F0E9FC67
:102C300001A95A4801F058FB0821584801F0E1FC6D
:102C400001A9564801F089FB0821544801F0E2FC33
:102C500001A9534801F048FB0821514801F0D1FC7B
:102C600001A9504801F040FB08214E4801F0C9FC81
:102C700001A94D4801F038FB08214B4801F0C1FC87
:102C800001A9494801F069FB0821474801F0C2FC4D
:102C900001A9464801F028FB0821444801F0B1FC95
:102CA00001A9424801F059FB0821404801F0B2FC5B
:102CB00001A93E4801F09EFB08213C4801F0B7FC09
:102CC00001A93A4801F0FCFB0821384801F0B8FCA2
:102CD00001A9374801F008FB0821354801F091FCB3
:102CE00001A9334801F039FB0821314801F092FC79
:102CF00001A92F4801F07EFB08212D4801F097FC27
:102D000001A92B4801F0DCFB0821294801F098FCBF
:102D100001A9284801F0E8FA0821264801F071FCD1
:102D200001A9244801F019FB0821224801F072FC96
:102D300001A9204801F05EFB08211E4801F077FC44
:102D400001A91C4801F0BCFB08211A4801F078FCDD
:102D500001A9194801F0C8FA0821174801F051FCEF
:102D600001A9154801F046FB0821134801F05FFC5A
:102D700001A9114801F0A4FB08210F4820E0000040
:102D8000000002400004024000080240000C024023
:102D90000010024000200040001C004000180040CD
:102DA000004801400044014000400140000401404F
:102DB000000C0040000800400004004000000140FA
:102DC00001F03EFC01A94FF0804001F08DFA08218E
:102DD000C80601F016FC01A94FF0804001F0BDFAD1
:102DE0000821C80601F016FC01A94FF0804001F04F
:102DF00001FB0821C80601F01AFC01A94FF0804030
:102E000001F05EFB0821C80601F01AFC01A9804808
:102E100001F06AFA08217E4801F0F3FB01A97C4821
:102E200001F09BFA08217A4801F0F4FB01A97848E7
:102E300001F0E0FA0821764801F0F9FB01A9744895
:102E400001F03EFB0821724801F0FAFB01217148B4
:102E500001F020FA01216F4801F03AFA01216E4891
:102E600001F018FA01216C4801F032FA01216B4897
:102E700001F010FA0121694801F02AFA012168489D
:102E800001F008FA0121664801F022FA01216548A3
:102E900001F000FA0121634801F01AFA01216248A9
:102EA00001F0F8F90121604801F012FA01215F48B0
:102EB00001F0F0F901215D4801F00AFA01215B48B7
:102EC00001F0F7FD01215A4801F0E4F901215848C9
:102ED00001F0FEF90121574801F0DCF901215548C4
:102EE00001F0F6F90121544801F0D4F901215248CA
:102EF00001F0EEF90121880701F0CCF901218807E2
:102F000001F0E6F90121424801F0C4F901214048ED
:102F100001F0DEF901213E4801F0CBFD4FF4FA61EA
:102F2000880601F03AFB4FF4FA61434801F039FB9F
:102F30004FF4FA61404801F036FB4FF4FA6134482F
:102F400001F02BFB4FF4FA61314801F028FB4FF4FC
:102F5000FA612F4801F027FB4FF4FA612C4801F089
:102F600020FB4FF4FA61880601F01BFB4FF4FA6175
:102F7000880601F018FB4FF4FA612E4801F00DFBB2
:102F80004FF4FA612B4801F00AFB4FF4FA6129482B
:102F900001F007FB4FF4FA61264801F004FB4FF4FF
:102FA000FA61224801F0F9FA4FF4FA611F4801F082
:102FB000F6FA4FF4FA611D4801F0F3FA4FF4FA61A2
:102FC0001A4801F0F0FA4FF4FA61880601F0E7FAC6
:102FD0004FF4FA61184801F0E0FA4FF4FA61124830
:102FE00001F0DBFA4FF4FA61114801F0D6FA4FF420
:102FF000FA610F4801F0D3FA4FF4FA610C4801F07E
:10300000D0FA4FF4FA610A4801F0CDFA0BB030BDA6
:103010000000014000200040001C0040001800405B
:1030200000480140004401400040014000040140CC
:10303000000C0040000800400004004000B58DB0C6
:103040000121042002F03AF80121080202F090F870
:1030500001200B9003208DF8300000208DF8330004
:103060000BA92C4800F010FD0121080202F0D5F850
:1030700000214FF4807002F0D0F8002007900A90F1
:1030800009904FF48030089007A802F0A5F90020BD
:1030900001908DF808008DF809000390059001203B
:1030A0008DF8180001A91C4802F067F901211A489F
:1030B00002F0A9F90DB000BD10B5044607230122A6
:1030C0002146154802F0DFF9134802F038FA00BF34
:1030D0000221114802F054FB0028F9D00E4802F0FA
:1030E0006AFA10BD2DE9F04107460C46002500267E
:1030F00008E03846FFF7E0FF0544012000F09CFAA5
:10310000701C86B2A642F4DBB5FBF4F080B2BDE8D9
:10311000F0810000000802400020014000B587B0A7
:103120000121084601F0CAFF0121480702F00FF80B
:103130001020059003208DF8180002208DF81B0048
:1031400005A9244800F0A0FC002001900290039003
:103150000220049001A9002002F041FB012100207F
:1031600002F05AFB4FF47A71002002F0A3FB07B083
:1031700000BD70B52DED048B0446204604F02CFAFA
:1031800041EC180B9FED140B53EC102B51EC180B6A
:1031900004F01AF841EC180B9FED110B53EC102BB7
:1031A00051EC180B04F068FA41EC190B9FED0E0B73
:1031B00053EC102B04F008F841EC180B51EC180BF1
:1031C00004F0C6F985B22946002002F073FBBDEC7D
:1031D000048B70BD000002400000000000408F40E2
:1031E000000000000000B0406666666666660A4041
:1031F00070B5044600F0BEF81A2000F067F900F040
:10320000FAF8204600F062F900F0F5F800F0B2F8A4
:103210001B2000F05BF900F0EEF800F084F90546A1
:1032200000F033F900F0C8F8284670BD70B50446C8
:103230000120FFF7DDFF05460020FFF7D9FF00EB77
:10324000052000B224F8020B0320FFF7D1FF05464A
:103250000220FFF7CDFF00EB052000B224F8020B9F
:103260000520FFF7C5FF05460420FFF7C1FF00EB6F
:10327000052000B224F8020B70BD10B500F07AF8FA
:103280001A2000F023F900F0B6F80B2000F01EF928
:1032900000F0B1F8012000F019F900F0ACF800F0EE
:1032A0008BF800F067F81A2000F010F900F0A3F88E
:1032B000092000F00BF900F09EF81D2000F006F93F
:1032C00000F099F800F078F80A2000F0FDF910BD40
:1032D00070B5044600F04EF81A2000F0F7F800F040
:1032E0008AF8002000F0F2F800F085F800F042F8CB
:1032F0001B2000F0EBF800F07EF800250FE000F056
:1033000012F9064600F0A0F800F00DF906EB0020D7
:1033100000B224F8020B00F097F8681CC5B2032D28
:10332000EDDB00F000F900F08FF800F0FCF800F0A1
:10333000ACF800F041F870BD1CB50121022001F08D
:10334000BDFEC020009001208DF8040000208DF803
:10335000060003208DF8050001208DF8070069465E
:10336000854800F091FB0120844908608449C1F838
:103370009C021CBD10B58048006820F440407E4986
:1033800008600846006840F48040086001207B49DE
:10339000091D08607A49C1F89802042000F04CF930
:1033A00000207649091D0860042000F045F900203E
:1033B0007349C1F8980210BD10B56F48006820F439
:1033C00040406D4908600846006840F4804008604D
:1033D00000206A4908606A49C1F89C02042000F094
:1033E0002BF90120654908606549C1F89C02042059
:1033F00000F022F910BD10B500245F48006820F4E9
:1034000040405D49086008460068086001205B494B
:10341000091D086000F010F901205949C1F898020F
:1034200000F00AF907E0601CC4B2FA2C03DDFFF7D4
:10343000C3FF012010BD51487C3800680028F2D13C
:103440004E49086000BFF5E710B500204B49086001
:103450004948006820F44040474908600846006831
:1034600040F48040086000204549C1F89C020220D9
:1034700000F0E2F8012041490860022000F0DCF889
:1034800000203F49C1F8980210BD10B500203B490B
:1034900008603948006820F4404037490860084611
:1034A000006840F48040086001203549C1F89C0262
:1034B000022000F0C1F8012030490860022000F02D
:1034C000BBF800202E49C1F8980210BD70B5044623
:1034D0002948006820F440402749086008460068F1
:1034E00040F480400860002024490860002517E06F
:1034F000E0092249091D08606006040E022000F060
:103500009BF801201E49C1F89802022000F094F8AF
:1035100000201A490860022000F08EF8681CC5B22D
:10352000082DE5DB70BD70B500241348006820F459
:10353000404011490860084600680860002516E010
:1035400000200E490860022000F076F801200C49A6
:10355000C1F898026006040E08487C38006808B17B
:10356000601CC4B2052000F067F8681CC5B2082DC5
:10357000E6DB204670BD0000000402409882404215
:10358000008040427FB505460C460121202001F015
:10359000DEFD0295ADF804400020ADF80600ADF860
:1035A0000C0001A9154800F00AFE0122114613483B
:1035B00001F0A6FA0121114800F08AFE37208DF8AB
:1035C000000001208DF8010003208DF80200012089
:1035D0008DF80300684600F066F97FBD10B5012143
:1035E000064801F0A4FA012802D10020044908701D
:1035F0000121024801F0ACFA10BD000000140040A7
:103600002401002010B504466FF0040000F098F982
:10361000E11704EB5171C1F3C701394A117010462B
:10362000007800EB4001C1EBC0104FF6FF7101EADA
:10363000C0003449088010BD0146314A12784A431F
:103640004FF0E0235A6100229A611A46126942F053
:1036500001021A6100BF4FF0E022106900F0010280
:103660001AB100F48032002AF5D04FF0E02212693E
:1036700022F001024FF0E0231A6100229A617047A4
:103680000146204A12884A434FF0E0235A61002243
:103690009A611A46126942F001021A6100BF4FF0A6
:1036A000E022106900F001021AB100F48032002A11
:1036B000F5D04FF0E022126922F001024FF0E02332
:1036C0001A6100229A61704770B504464FF4077082
:1036D00094FBF0F0C6B24FF4077094FBF0F100FBDE
:1036E000114085B205E04FF40770FFF7C9FF701E67
:1036F000C6B2002EF7D115B12846FFF7C1FF70BD45
:103700002601002028010020014600BF704700BFAD
:103710004E4A128802F04002002AF9D0C2B24B4B46
:103720009A80704710B588B004460121084601F020
:10373000C5FC0121102001F01BFD0722092144488E
:1037400000F02DFA07220A21414800F028FA4FF430
:10375000C060069002208DF81C008DF81D0000202E
:103760008DF81E0001208DF81F0006A9384800F0D2
:103770008BF902940020ADF80C00ADF80E00ADF806
:103780001000ADF814000C20ADF8120002A92F486B
:1037900000F0A5FA01212D4800F029FB40212B481B
:1037A00000F00DFC012240F22551284800F0D5FB25
:1037B00025208DF8040003208DF805008DF8060003
:1037C00001208DF8070001A800F06DF808B010BDC9
:1037D00010B540F225511D4800F0FAFB10B31B480C
:1037E00000F034FBC4B21B48008800F40040C8B9A4
:1037F0001848008800F4804060B10A2C03D00020F3
:103800001449088020E01348008840F40040114922
:10381000088019E00D2C06D10E48008840F4804045
:103820000C49088010E00B480088C0F30D000A49DD
:103830000C5408480088401C064908800846008847
:10384000C72801DD0020088010BD000000100140E5
:103850000000024030010020440100200948804758
:1038600009480047FEE7FEE7FEE7FEE7FEE7FEE762
:10387000FEE7FEE7FEE7FEE704480549054A064B7A
:10388000704700009D270008890100087002002091
:1038900070080020700400207004002032490143A9
:1038A000324A1160704770B5002100230F22C4789E
:1038B0001CB32E4C246804F4E064C4F5E064C4F343
:1038C0000721C1F10404E3B20A4144789C40E1B20B
:1038D0008478144021430C07210E254C057861554E
:1038E000047804F01F050124AC4005786D11AD008B
:1038F00005F1E025C5F8004109E0047804F01F0552
:103900000124AC401B4D0678761145F8264070BD69
:10391000194A0A400243154B1B1F1A60704739B100
:10392000124A121D12680243104B1B1D1A6006E05A
:103930000E4A121D126882430C4B1B1D1A60704701
:10394000042808D14FF0E021096941F004014FF04B
:10395000E022116107E04FF0E021096921F0040144
:103960004FF0E022116170470000FA050CED00E015
:1039700000E400E080E100E080FFFF1F10B5044696
:103980009848844208D10121084601F002FC002138
:10399000012001F0FEFB76E09348844208D101212A
:1039A000022001F0F6FB0021022001F0F2FB6AE0A8
:1039B0008E48844208D10121042001F0EAFB002155
:1039C000042001F0E6FB5EE08948844208D1012131
:1039D000082001F0DEFB0021082001F0DAFB52E0B4
:1039E0008448844208D10121102001F0D2FB00213B
:1039F000102001F0CEFB46E07F48844208D101212F
:103A0000202001F0C6FB0021202001F0C2FB3AE09B
:103A10007A48844208D10121402001F0BAFB0021FC
:103A2000402001F0B6FB2EE07548844208D1012108
:103A3000802001F0AEFB0021802001F0AAFB22E0F3
:103A40007048844208D10121801501F0A2FB0021B9
:103A5000A01501F09EFB16E06B48844208D10121BD
:103A6000401501F096FB0021601501F092FB0AE081
:103A70006648844207D10121001501F08AFB00212C
:103A8000201501F086FB10BDF0B50A460021002389
:103A9000002400BF3DE0012505FA01F3156805EAA1
:103AA00003049C4234D105684F000326BE40B54351
:103AB000056015794E00B5400668354305601579F7
:103AC000012D02D01579022D16D185684F000326ED
:103AD000BE40B543856055794E00B5408668354394
:103AE0008560456801268E40B543456045689679F6
:103AF0008E40B6B235434560C5684F000326BE40D0
:103B0000B543C560D5794E00B540C6683543C5603C
:103B1000491C1029BFD3F0BD4FF6FF710160002191
:103B2000017141718171C171704708B54FF48032E4
:103B30000092009A0A430092009AC261C161009A01
:103B4000C261C2690092C269009208BD02460020AB
:103B500013690B400BB1012000E0002070470146C3
:103B6000086980B270470246002053690B400BB1D0
:103B7000012000E0002070470146486980B270478C
:103B800001837047418370470AB1018300E041839C
:103B900070474161704742694A4042617047F0B5E1
:103BA000002300244D07ED0E02FA05F3CE1000F1BC
:103BB000200555F826504E07F70E0F26BE40B54398
:103BC000CF1000F1200646F82750CE1000F1200556
:103BD00055F8265045EA0304CE1000F1200545F8BB
:103BE0002640F0BD000002400004024000080240F0
:103BF000000C024000100240001402400018024075
:103C0000001C024000200240002402400028024024
:103C100010B50446FA48844208D10121102001F071
:103C2000FCFA0021102001F0F8FA57E0F548844230
:103C300009D10121480401F0DFFA00214FF40030DE
:103C400001F0DAFA4AE0F048844209D101218804FF
:103C500001F0D2FA00214FF4802001F0CDFA3DE0CE
:103C6000EA48844209D10121C80401F0C5FA0021C3
:103C70004FF4002001F0C0FA30E0E548844209D159
:103C80000121080501F0B8FA00214FF4801001F07D
:103C9000B3FA23E0DF48844208D10121202001F05B
:103CA000BCFA0021202001F0B8FA17E0DA4884427B
:103CB00009D10121880701F09FFA00214FF08040CF
:103CC00001F09AFA0AE0D548844207D10121400563
:103CD00001F092FA0021600501F08EFA10BD2DE985
:103CE000FF4705460E460024A14600BFA046B08906
:103CF00000B100BF2C8A24F44054F08804432C8285
:103D0000AC8941F20C608443B088318908437189E1
:103D100008430443AC81AC8A24F44074B089044362
:103D2000AC82684601F0F9F8B548854202D0B9483E
:103D3000854202D1DDF80C9001E0DDF80890A889F9
:103D400000F4004040B109EBC90000EB09103168F4
:103D50004900B0FBF1F707E009EBC90000EB0910DF
:103D600031688900B0FBF1F76420B7FBF0F0040183
:103D70002009642101FB1078A88900F4004040B1BB
:103D8000322000EBC800B0FBF1F000F00700044364
:103D900008E0322000EB08106421B0FBF1F000F0E5
:103DA0000F0004432C81BDE8FF874FF416510160DA
:103DB00000218180C18001810C214181002181810C
:103DC000704710B502460020108A20F470600B88FE
:103DD0004C8823438C882343CC8823431843108288
:103DE00010BD0021018041808180C180704721B1D8
:103DF000828942F40052828104E082894DF6FF7389
:103E00001A4082817047028B02F47F420283028B48
:103E10000A430283704721B1828942F400428281C1
:103E200003E08289C2F30E028281704721B1828A47
:103E300042F40062828204E0828A4FF2FF731A40E9
:103E400082827047C1F308028280704701468888E9
:103E5000C0F308007047028A4FF6F0731A400282DE
:103E6000028A0A430282704721B1828942F002022B
:103E7000828104E082894FF6FD731A408281704787
:103E800082894FF2FF731A40828182890A438281BC
:103E90007047028A4FF6DF731A400282028A0A4391
:103EA0000282704721B1028A42F48042028204E019
:103EB000028A4BF6FF731A4002827047818941F0F3
:103EC00001018181704721B1828A42F00802828219
:103ED00004E0828A4FF6F7731A4082827047028BA1
:103EE000D2B20283028B42EA01220283704721B1DF
:103EF000828A42F02002828204E0828A4FF6DF73D7
:103F00001A408282704721B1828A42F01002828276
:103F100004E0828A4FF6EF731A4082827047828AE9
:103F20004FF6FB731A408282828A0A43828270476C
:103F300021B1828A42F00202828204E0828A4FF634
:103F4000FD731A40828270471AB1838A0B438382C1
:103F500002E0838A8B4383827047F0B503460024D6
:103F600000260025002040F66A17B94200D100BFA4
:103F70001846C1F3421401F01F06012707FA06F59F
:103F8000012C01D10C3004E0022C01D1103000E0F2
:103F900014301AB107682F43076002E00768AF4387
:103FA0000760F0BD02460020B1F5007F00D100BFE0
:103FB00013880B400BB1012000E00020704701F492
:103FC0000072B2F5007F00D100BFCA430280704783
:103FD00070B50246002400230025002040F66A1632
:103FE000B14200D100BFC1F3421501F01F03012609
:103FF00006FA03F3012D13D19689334017E0000030
:10400000001001400044004000480040004C0040C7
:10401000005000400014014000780040007C004047
:10402000022D02D1168A334001E0968A33400C12E9
:10403000012606FA04F41688344013B10CB10120AD
:1040400000E0002070BD10B50022002340F66A1485
:10405000A14200D100BF0A1201249440A3B2DC4364
:10406000048010BD10B50446FE48844208D10121E9
:10407000084601F0D2F80021012001F0CEF89DE0C1
:10408000B4F1804F08D10121084601F0B5F80021B4
:10409000012001F0B1F891E0F348844208D10121F8
:1040A000022001F0A9F80021022001F0A5F885E026
:1040B000EE48844208D10121042001F09DF800213E
:1040C000042001F099F879E0E948844208D10121FF
:1040D000082001F091F80021082001F08DF86DE032
:1040E000E448844208D10121102001F085F8002124
:1040F000102001F081F861E0DF48844208D10121FD
:10410000202001F079F80021202001F075F855E019
:10411000DA48844208D10121022001F07EF8002112
:10412000022001F07AF849E0D548844209D1012102
:10413000080401F072F800214FF4803001F06DF8AE
:104140003CE0D048844209D10121480401F065F8DF
:1041500000214FF4003001F060F82FE0CA4884429B
:1041600009D10121880401F058F800214FF4802082
:1041700001F053F822E0C548844208D101214020D3
:1041800001F03AF80021402001F036F816E0C0486E
:10419000844208D10121802001F02EF800218020E6
:1041A00001F02AF80AE0BB48844207D101218015BA
:1041B00001F022F80021A01501F01EF810BD002228
:1041C0000288A84B98420ED0AC4B98420BD0B0F16D
:1041D000804F08D0A44B984205D0A44B984202D0FF
:1041E000A34B984204D14FF68F731A404B881A4361
:1041F000A04B984207D0A04B984204D04FF6FF4303
:104200001A400B891A4302804B68C3620B880385EE
:10421000944B984202D0994B984201D18B7A0386F5
:104220000123838270474FF0FF31416000210180FC
:1042300001814180817270470185828270470A4600
:10424000002101884FF68F73194011430180704798
:1042500041627047C16270470146486A7047014633
:10426000088D704721B1028842F00202028004E00A
:1042700002884FF6FD731A400280704721B1028810
:1042800042F00402028004E002884FF6FB731A40F9
:104290000280704721B1028842F08002028004E06F
:1042A00002884FF67F731A400280704702884FF6EB
:1042B000F7731A40028002880A430280704702881E
:1042C0004FF6FF431A40028002880A43028070477B
:1042D00021B1028842F00102028004E002884FF618
:1042E000FE731A400280704770B50024002200233C
:1042F000058C4FF6FE7635400584028C8388048B4E
:104300004FF68F752C40B51E2C400D882C43751E22
:104310002A408D892A434D882A43524DA84202D013
:10432000564DA84213D14FF6F7752A40CD892A433E
:104330004FF6FB752A408D882A434FF6FF652B40C8
:104340004FF6FF552B400D8A2B434D8A2B4383801C
:1043500004838D684563028470BD70B5002400221B
:104360000023058C4FF6EF7635400584028C838858
:10437000048B48F6FF752C404FF6FF452C400D8806
:104380004FF6FF7606EA05252C434FF6DF752A40E7
:104390008D8906EA05152A434D8806EA05152A4344
:1043A000304DA84202D0354DA8421DD14FF67F7541
:1043B0002A40CD894FF6FF7606EA05152A434FF6C7
:1043C000BF752A408D8806EA05152A434FF6FF354A
:1043D0002B404FF2FF752B400D8A06EA85052B43D3
:1043E0004D8A06EA85052B43838004838D688563A7
:1043F000028470BD70B5002400220023058C4FF6A6
:10440000FF6635400584028C8388848B4FF68F7558
:104410002C404FF6FC752C400D882C434FF6FF5571
:104420002A408D894FF6FF7606EA05252A434D88F6
:1044300006EA05252A430B4DA84202D00F4DA8429B
:1044400038D14FF2FF752A40CD894FF6FF7606EA44
:1044500005252A434FF6FF352A408D8806EA0525B3
:104460002A4319E000000140000400400008004019
:10447000000C004000100040001400400004014007
:104480000040014000440140004801400018004045
:10449000001C0040002000404EF6FF752B404DF6FA
:1044A000FF752B400D8A06EA05152B434D8A06EA57
:1044B00005152B43838084838D68C563028470BD9A
:1044C00070B5002200230024058C4EF6FF7635409F
:1044D0000584038C8488828B48F6FF752A404FF64A
:1044E000FF452A400D884FF6FF7606EA05252A4348
:1044F0004DF6FF752B408D8906EA05352B434D8817
:1045000006EA05352B43FE4DA84202D0FD4DA842D8
:1045100008D14BF6FF752C400D8A4FF6FF7606EA60
:1045200085152C43848082838D680564038470BD67
:10453000002101804180818081608181C18101826F
:104540004182704770B50346002000241846183099
:1045500001258D40ACB21D8CA5431D8409B10829ED
:104560000AD100EB610005684FF68F763540056093
:104570000568154305600FE00D1FC5F34E0528447F
:10458000056848F6FF763540056005684FF6FF760A
:1045900006EA02263543056070BD416370478163BA
:1045A0007047C1637047016470470A460021018B60
:1045B0004FF68F7319401143018370470A4600215B
:1045C000018B48F6FF7319404FF6FF7303EA02238D
:1045D0001943018370470A460021818B4FF68F7380
:1045E00019401143818370470A460021818B48F6A8
:1045F000FF7319404FF6FF7303EA022319438183C7
:1046000070470A460021018B4FF6F773194011439A
:10461000018370470A460021018B4FF2FF73194056
:104620004FF6FF7303EA02231943018370470A46DA
:104630000021818B4FF6F773194011438183704736
:104640000A460021818B4FF2FF7319404FF6FF732A
:1046500003EA02231943818370470A460021018B34
:104660004FF6FB7319401143018370470A4600213E
:10467000018B4FF6FF3319404FF6FF7303EA022315
:104680001943018370470A460021818B4FF6FB7363
:1046900019401143818370470A460021818B4FF6F0
:1046A000FF3319404FF6FF7303EA02231943818356
:1046B00070470A460021018B4FF67F731940114362
:1046C000018370470A460021018BC1F30E014FF6AA
:1046D000FF7303EA02231943018370470A4600214E
:1046E000818B4FF67F7319401143818370470A46CF
:1046F0000021818BC1F30E014FF6FF7303EA022301
:104700001943818370470A460021018C4FF6FD73DF
:1047100019401143018470470A460021018C4FF66D
:10472000F77319401143018470470A460021018C38
:104730004FF6DF7319404FF6FF7303EA0213194374
:10474000018470470A460021018C4FF67F7319409F
:104750004FF6FF7303EA02131943018470470A46B8
:104760000021018C4FF6FF5319404FF6FF7303EA07
:1047700002231943018470470A460021018C4FF23D
:10478000FF7319404FF6FF7303EA022319430184B4
:1047900070470A460021018C4DF6FF7319404FF611
:1047A000FF7303EA023319430184704730B50023D5
:1047B00001248C40A3B2048C9C430484048C02FA30
:1047C00001F5ADB22C43048430BD30B50023042480
:1047D0008C40A3B2048C9C430484048C02FA01F53F
:1047E000ADB22C43048430BD828B4FF2FF331A40AC
:1047F0008283828B4FF6FF7303EA01231A4382837D
:104800007047F0B50C461546002100220026078CA3
:104810004EF6FF7C07EA0C070784818B028C4FF66B
:10482000FF7707EA043640F6FF4739404FF6FF7737
:1048300007EA052739434FF6FF7707EA033739437D
:1048400045F6FF773A4046F480573A438183028425
:10485000F0BD828B4FF6F3731A408283828B0A433A
:1048600082837047F0B50C461546002100220026D1
:10487000078C4FF6FF6C07EA0C070784818B028CCC
:104880004FF6FF7707EA04264FF60C7739404FF6CC
:10489000FF7707EA03172F4339434FF2FF573A4098
:1048A00046F480773A4381830284F0BD028B4FF255
:1048B000FF331A400283028B4FF6FF7303EA012392
:1048C0001A4302837047F0B50C46154600210022BA
:1048D0000026078C4FF6EF7C07EA0C070784018B54
:1048E000028C4FF6FF7707EA041640F6FF4739407F
:1048F0004FF6FF7707EA033739434FF6FF7703E0B8
:10490000000001400004014007EA052739434FF643
:104910005F773A4046F010073A4301830284F0BDC6
:10492000028B4FF6F3731A400283028B0A43028311
:104930007047F0B50C46154600210022068C4FF654
:10494000FE773E400684018B028C4FF60C76314098
:104950007E1C06EA03162E4331434FF6F5763240AD
:1049600044F00106324301830284F0BD70B5054670
:104970000C46208850B92389A28861882846FFF711
:10498000D8FFE1882846FFF7CBFF25E020880428E0
:104990000AD12389A28861882846FFF794FFE1881D
:1049A0002846FFF783FF17E0208808280AD12389CB
:1049B000A28861882846FFF755FFE1882846FFF75F
:1049C00048FF09E02389A28861882846FFF719FF7C
:1049D000E1882846FFF708FF70BD00210180418073
:1049E000012181800021C180018170472DE9F041C2
:1049F00005460C4600260127608808B9022600E01B
:104A00000026A088012801D1022700E00127208884
:104A1000A0B92389A28861882846FFF78AFFE18828
:104A20002846FFF77DFF23893A4631462846FFF79F
:104A30004AFFE1882846FFF739FF13E02389A2885F
:104A400061882846FFF73FFFE1882846FFF72EFFE1
:104A500023893A4631462846FFF76BFFE18828460E
:104A6000FFF75EFFBDE8F0810146486B70470146E5
:104A7000886B70470146C86B70470146086C7047E9
:104A80000A884B881A438B881A43CB881A430B89B0
:104A90001A434B891A438B891A43A0F84420704764
:104AA0000021018041808180C1800181418181811B
:104AB000704731B1B0F8442042F40042A0F84420DD
:104AC00005E0B0F84420C2F30E02A0F8442070477D
:104AD00021B1828842F00402828004E082884FF68D
:104AE000FB731A408280704721B1828842F0010234
:104AF000828004E082884FF6FE731A4082807047FD
:104B00001AB183890B43838102E083898B438381BC
:104B100070478182704702460020138A0B400BB118
:104B2000012000E000207047CA430282704730B580
:104B30000246002000230024158A05EA0103958916
:104B400005EA010413B10CB1012000E0002030BDE2
:104B5000CA430282704741EA0203A0F84830704716
:104B60001AB183890B43838102E083898B4383815C
:104B7000704721B1828842F00802828004E0828876
:104B80004FF6F7731A408280704701894FF6F8722A
:104B90001140018170470A46002101894FF68F7349
:104BA000194011430181704730B504460D4629462E
:104BB0002046FFF7F0FF208940F00700208130BD3C
:104BC0002DE9F04104460D4616461F46602D06D1DC
:104BD0003B46012231462046FFF775FE05E03B4685
:104BE000012231462046FFF7A4FE29462046FFF762
:104BF000D2FF208940F007002081BDE8F08130B568
:104C00000C4600210189C9B24FF6FF7505EA03255C
:104C1000154325432943018130BD2DE9F041054667
:104C20000E4617469846002443463A4631462846E3
:104C3000FFF7E5FF2C894FF6F870044044F00704B5
:104C40004FF68F70044044F070042C81BDE8F08171
:104C5000F0B504460D4616461F463B4632462946E9
:104C60002046FFF7CCFF208940F480402081F0BD32
:104C700082884FF68F731A40828082880A4382802E
:104C8000704702894FF6F8731A40028102890A437D
:104C90000281704702894FF67F731A4002810289B0
:104CA0000A4302817047F0B50C4615461E460021A6
:104CB000002200230189028B038C4FF6F8773940DC
:104CC00021434FF6FC473A4040F201173A434FF672
:104CD000DD773B404FF6FF7707EA06172F433B434C
:104CE000018102830384F0BD21B1828842F08002F9
:104CF000828004E082884FF67F731A40828070477A
:104D0000A0F8501070470000F948006840F001001A
:104D1000F74908600020F64908310860F448006847
:104D2000F4490840F2490860F348091D0860F34857
:104D3000EF4984310860F0481038091D0860EC48DC
:104D4000006820F48020EA4908600020E8490C311E
:104D50000860E7498C31086070470021E44A921CE2
:104D6000117011460870704710B5014600220023EB
:104D700000204A11012A02D1DD4C236808E0022AF2
:104D800003D1DB4C7034236802E0D94C74342368BF
:104D900001F01F02012494401C400CB1012000E0EE
:104DA000002010BD38B5002000900024002500BF71
:104DB0003120FFF7D9FF05460098401C009000986D
:104DC000B0F5A04F01D0002DF2D03120FFF7CCFF7D
:104DD00008B1012400E00024204638BD014600202F
:104DE000C34A106820F0F80040EAC1001060704724
:104DF000C349086070470021BD4A703211701170BC
:104E0000012802D004280AD104E00121B84A7032F6
:104E1000117005E00521B64A7032117000E000BF44
:104E200000BF7047B7490860704770B5049C41EAFD
:104E300082150126C6EB530645EA0645054345EAB9
:104E40000465AB4E361D356070BDAD4908667047D0
:104E5000820142EA0172A64B84331A607047A84966
:104E60008866704710B5830143EA016343EA027321
:104E70009F4C8834236010BDA14908677047A04942
:104E8000C864704702460020994B0833186820F028
:104E9000EC6042EA01031843954B083318607047F1
:104EA00002460020924B0833186820F0784042EA0E
:104EB000010318438E4B08331860704701460020E9
:104EC0008B4A0832106820F00300084310607047D6
:104ED00087480830006800F00C0070470146002049
:104EE000834A0832106820F0F000084310607047D1
:104EF000014600207E4A0832106820F4E050084342
:104F00001060704701460020794A0832106820F48A
:104F1000604040EAC10010607047F0B500210022F7
:104F20000024022500260223714F08373F6807F04E
:104F30000C0121B1042905D0082937D105E0724FB1
:104F4000076036E0714F076033E0694F3F1D3F68EF
:104F5000C7F38056664F3F1D3F6807F03F036EB1B1
:104F60006A4FB7FBF3F7DFF888C10CF1040CDCF8EB
:104F700000C0CCF3881C07FB0CF40CE0624FB7FBBD
:104F8000F3F7DFF86CC10CF1040CDCF800C0CCF3D3
:104F9000881C07FB0CF4564F3F1D3F68C7F30147C1
:104FA0007F1C7D00B4FBF5F7076002E0564F0760F9
:104FB00000BF00BF4E4F08373F6807F0F0010909F6
:104FC000534F7A5C0768D7404760494F08373F68BE
:104FD00007F4E051890A4E4F7A5C4768D7408760F2
:104FE000434F08373F6807F46041490B484F7A5CEC
:104FF0004768D740C760F0BD002100F44072B2F5A9
:10500000407F0AD13A4A0832116821F4F811414A26
:1050100002401143364A08321160354A7032126834
:10502000C0F30B031A43324B70331A607047354993
:105030004439086070473349403908607047364941
:105040000860704701460020294A8C32106820F021
:105050001F004A1E1043264A8C32106070470146DA
:105060000020234A8C32106820F4F8504A1E40EA8F
:1050700002201F4A8C3210607047014600201C4AF3
:105080008C32106820F440100843106070470146CD
:105090000020174A8C32106820F44000084310604A
:1050A000704701460020124A8C32106820F44030CC
:1050B00008431060704719490860704739B10C4ABD
:1050C0003032126802430A4B30331A6006E0084A55
:1050D000303212688243064B30331A607047F9B1A0
:1050E000034A343212680243014B34331A601CE025
:1050F00000380240FFFFF6EA1030002400300020A4
:1051000000004742800E47420024F40000127A005B
:1051100032010020FFFCFF0F5C014742E0114742D3
:105120008F4A126882438E4B1A60704739B18C4A9D
:10513000121D126802438A4B1B1D1A6006E0884A42
:10514000121D12688243864B1B1D1A60704739B1CD
:10515000834A0C3212680243814B0C331A6006E01A
:105160007F4A0C32126882437D4B0C331A607047C1
:1051700039B17B4A103212680243794B10331A60FE
:1051800006E0774A103212688243754B10331A607A
:10519000704739B1724A243A12680243704B243B7B
:1051A0001A6006E06E4A243A126882436C4B243B34
:1051B0001A60704739B16A4A203A12680243684B54
:1051C000203B1A6006E0664A203A12688243644B2C
:1051D000203B1A60704739B1614A1C3A1268024399
:1051E0005F4B1C3B1A6006E05D4A1C3A1268824322
:1051F0005B4B1C3B1A60704739B1594A143A12682C
:105200000243574B143B1A6006E0554A143A1268A1
:105210008243534B143B1A60704739B1504A103ADD
:10522000126802434E4B103B1A6006E04C4A103A9B
:10523000126882434A4B103B1A60704739B1484AA2
:105240001C3212680243464B1C331A6006E0444A83
:105250001C3212688243424B1C331A60704739B1CA
:105260003F4A2032126802433D4B20331A6006E069
:105270003B4A203212688243394B20331A60704710
:1052800039B1374A243212680243354B24331A604D
:1052900006E0334A243212688243314B24331A60C9
:1052A000704739B12E4A2C32126802432C4B2C33F2
:1052B0001A6006E02A4A2C3212688243284B2C33AB
:1052C0001A60704739B1264A303212680243244BC3
:1052D00030331A6006E0224A303212688243204B93
:1052E00030331A607047012808D11D493C310968E4
:1052F00041F008011A4A3C32116007E018493C317C
:10530000096821F00801164A3C321160704739B132
:10531000134A273A12780243114B273B1A7006E0D2
:105320000F4A273A127882430D4B273B1A70704779
:105330000B484030006840F08070094940310860F7
:10534000704701460020064A283A12680A400AB10E
:10535000012000E00020704701492639087070479D
:105360003438024010B501210802FFF756FF002132
:105370004FF48070FFF751FF10BD30B5024600209A
:1053800000235068F84C20400D790C6844EA05244D
:10539000204350609068F54C2040D1E903542C43E1
:1053A0008D682C434D7944EA450420439060D06ACF
:1053B00020F470000C7D641EE4B2234340EA0350E5
:1053C000D06230BD00210160017141718160C16016
:1053D00001610121017570470021E54A1168E54A24
:1053E0001140D0E900231A4383681A43C3681A4363
:1053F0001143E14AC2F80413704700210160416083
:105400008160C160704721B1826842F00102826010
:1054100003E0826822F00102826070470A460021A0
:105420004168D64B19401143416070474162826226
:1054300070470A460021416821F01F011143416075
:10544000704738B1CA49096841F40001CA4AC2F834
:10545000041306E0C649096821F40001C64AC2F8EF
:105460000413704738B1C249096841F48001C24A47
:10547000C2F8041306E0BE49096821F48001BE4A5F
:10548000C2F804137047F0B504460D460020002111
:10549000092D11DDE068A5F10A0606EB460707268F
:1054A00006FA07F18843A5F10A0606EB460603FA59
:1054B00006F10843E0600CE0206905EB450707268C
:1054C00006FA07F1884305EB450603FA06F108439F
:1054D0002061072A0FDA606B561E06EB86071F262F
:1054E00006FA07F18843561E06EB860605FA06F112
:1054F0000843606322E00D2A0FDA206BD61F06EB0B
:1055000086071F2606FA07F18843D61F06EB860694
:1055100005FA06F10843206310E0E06AA2F10D06E7
:1055200006EB86071F2606FA07F18843A2F10D064F
:1055300006EB860605FA06F10843E062F0BD8168D5
:1055400041F0804181607047014600208A6802F086
:1055500080420AB1012000E00020704721B182683A
:1055600042F48062826003E0826822F4806282609A
:10557000704721B1826842F00202826003E08268D3
:1055800022F002028260704710B50A460021002313
:10559000416821F46041531E41EA4331416010BD2E
:1055A00021B1426842F40062426003E0426822F4A2
:1055B0000062426070470146C86C80B270476C4818
:1055C000001D0068704721B1826842F480728260D9
:1055D00003E0826822F480728260704721B18268A1
:1055E00042F40072826003E0826822F400728260FA
:1055F000704738B15E49096841F400515E4AC2F80B
:10560000041306E05A49096821F400515A4AC2F8C5
:1056100004137047F0B5044615460020002200260A
:10562000092911DDE068A1F10A0707EB470C0727FC
:1056300007FA0CF29043A1F10A0707EB470703FAB8
:1056400007F21043E0600CE0206901EB410C0727F2
:1056500007FA0CF2904301EB410703FA07F21043FB
:105660002061A06BC0F30156EF1C06F1010CA7EB03
:105670000C0707EB870C1F2707FA0CF29043EF1C6F
:1056800006F1010CA7EB0C0707EB870701FA07F2FD
:105690001043A063F0BD10B50A4600210023816BC2
:1056A00021F44011531E41EA0351816310BD08B536
:1056B000002300930090009B0B440093009B1A6012
:1056C00008BD0A460021816821F4702111438160E0
:1056D00070470A460021816821F44011114381601E
:1056E0007047816841F48001816070470146002065
:1056F0008A6802F480020AB1012000E000207047AD
:1057000021B1426842F48062426003E0426822F4C0
:1057100080624260704721B1426842F48052426028
:1057200003E0426822F480524260704708B50246A6
:1057300000200090009201F12800009B1844009086
:105740000098006880B208BD10B50B460021D9B2A0
:10575000012404FA01F11AB144680C43446002E0E8
:1057600044688C43446010BDFFFEFFFCFDF7FFC0A2
:1057700004230140E030FCFF00200140FFFD3FFF1B
:105780000246002013680B400BB1012000E000200E
:105790007047CA430260704770B50246002000237C
:1057A00000240B12556801268E4005EA0604156890
:1057B0001D4015B10CB1012000E0002070BD002299
:1057C0000A12D3430360704710B501214807FFF761
:1057D00013FD00214FF00050FFF70EFD10BD30B556
:1057E000002200237B4C226840F6FE748440A243D2
:1057F000D1E900452C438D682C43CD6844EA05036C
:1058000003FA00F42243734C226030BD0021016092
:1058100041608160C160704739B16E4A12680123EE
:1058200083401A436B4B1A6006E06A4A12680123F0
:1058300083409A43674B1A60704710B551B1654A6F
:10584000121D126804090123A3401A43614B1B1D5A
:105850001A6009E05F4A121D126804090123A3407F
:105860009A435C4B1B1D1A6010BD40B15949091D7C
:10587000096841F00301574A121D116007E05549BC
:10588000091D096821F00301524A121D1160704779
:1058900010B53AB14F4B1B6801FA00F423434D4C4D
:1058A000236006E04B4B1B6801FA00F4A343494C0C
:1058B000236010BD08B500220092464A009200F114
:1058C0000802009B1A440092009A116008BD08B5B6
:1058D000002200923F4A009200F11402009B1A44F9
:1058E0000092009A116008BD30B5002400230828FA
:1058F00002D142EA012401E042EA0144354B00F1C1
:1059000020052B441C6030BD08B5014600200090E6
:10591000304800902C2000EB9100009A1044009039
:105920000098006880B208BD41B12A4A12684FF45D
:10593000805383401A43274B1A6007E0254A1268B8
:105940004FF4805383409A43224B1A60704710B53E
:105950003AB1204B1B6801FA00F423431D4C23602D
:1059600006E01C4B1B6801FA00F4A343194C2360AA
:1059700010BD10B502460020164B34331B6801FAE7
:1059800002F423400BB1012000E0002010BD01FA19
:1059900000F2104B34331A60704730B502460020D5
:1059A00000230C4C246801FA02F504EA0503094CB3
:1059B0003434246801FA02F52C4014B10BB10120F3
:1059C00000E0002030BD01FA00F2024B34331A60CF
:1059D0007047000000740040704710B54C1084EA16
:1059E000530404D54042C1F1000138BF491E1B4297
:1059F00004D55242C3F1000338BF5B1E00F015F816
:105A000014F0804F04D04042C1F1000138BF491E5C
:105A100014F0004F04D05242C3F1000338BF5B1EA4
:105A200010BD704770477047704753EA020C00F092
:105A300069802DE9F04B4FF00006002B1FBFB3FA31
:105A400083F503FA05F424FA05F65E4012BF164307
:105A5000B2FA82F502FA05F4C5F120051EBF22FA5A
:105A600005FC44EA0C04203556EA044C4FEA144481
:105A700018BF641C4FF000084FF00009904271EB12
:105A8000030C39D3002919BFB1FA81F701FA07F6DF
:105A9000B0FA80F700FA07F6C7F120071EBF20FA18
:105AA00007FC46EA0C062037B6FBF4FCA7EB05071B
:105AB000103F07F01F0BCBF120060CFA0BFB2CFA62
:105AC00006F644BFB3460026202FA4BF5E464FF023
:105AD000000B5BEA060C08BF4FF0010B19EB0B093A
